{
  "address": "0xb3cb0E2c3A41422b94df270CAE5E80527fAe4D7e",
  "abi": [
    {
      "inputs": [],
      "stateMutability": "nonpayable",
      "type": "constructor"
    },
    {
      "anonymous": false,
      "inputs": [
        {
          "indexed": true,
          "internalType": "address",
          "name": "player",
          "type": "address"
        },
        {
          "indexed": false,
          "internalType": "uint256",
          "name": "amount",
          "type": "uint256"
        }
      ],
      "name": "BetPlaced",
      "type": "event"
    },
    {
      "anonymous": false,
      "inputs": [
        {
          "indexed": true,
          "internalType": "address",
          "name": "player",
          "type": "address"
        },
        {
          "indexed": false,
          "internalType": "uint256",
          "name": "amount",
          "type": "uint256"
        }
      ],
      "name": "Payout",
      "type": "event"
    },
    {
      "anonymous": false,
      "inputs": [
        {
          "indexed": true,
          "internalType": "address",
          "name": "player",
          "type": "address"
        },
        {
          "indexed": false,
          "internalType": "uint256",
          "name": "amount",
          "type": "uint256"
        },
        {
          "indexed": false,
          "internalType": "uint256",
          "name": "penalty",
          "type": "uint256"
        }
      ],
      "name": "Withdrawal",
      "type": "event"
    },
    {
      "inputs": [
        {
          "internalType": "address",
          "name": "",
          "type": "address"
        }
      ],
      "name": "balances",
      "outputs": [
        {
          "internalType": "uint256",
          "name": "",
          "type": "uint256"
        }
      ],
      "stateMutability": "view",
      "type": "function"
    },
    {
      "inputs": [
        {
          "internalType": "address",
          "name": "",
          "type": "address"
        }
      ],
      "name": "lastBetTime",
      "outputs": [
        {
          "internalType": "uint256",
          "name": "",
          "type": "uint256"
        }
      ],
      "stateMutability": "view",
      "type": "function"
    },
    {
      "inputs": [],
      "name": "owner",
      "outputs": [
        {
          "internalType": "address",
          "name": "",
          "type": "address"
        }
      ],
      "stateMutability": "view",
      "type": "function"
    },
    {
      "inputs": [],
      "name": "placeBet",
      "outputs": [],
      "stateMutability": "payable",
      "type": "function"
    },
    {
      "inputs": [
        {
          "internalType": "address",
          "name": "player",
          "type": "address"
        },
        {
          "internalType": "uint8",
          "name": "position",
          "type": "uint8"
        }
      ],
      "name": "resolveRace",
      "outputs": [],
      "stateMutability": "nonpayable",
      "type": "function"
    },
    {
      "inputs": [],
      "name": "withdrawEarnings",
      "outputs": [],
      "stateMutability": "nonpayable",
      "type": "function"
    }
  ],
  "transactionHash": "0x6f717835559311bc257acbebc98a33570fdb22ce0a3e000719bf5e28f7b63ea5",
  "args": [],
  "numDeployments": 1,
  "solcInputHash": "9b056432c3bb189aa2f27dc7140e7453",
  "bytecode": "0x608060405234801561001057600080fd5b50600080546001600160a01b031916735b38da6a701c568545dcfcb03fcb875f56beddc417905561068c806100466000396000f3fe6080604052600436106100555760003560e01c806327e235e31461005a57806351e9ae121461009a57806362040495146100bc5780638da5cb5b146100e9578063b73c6ce914610121578063f90f456014610136575b600080fd5b34801561006657600080fd5b5061008761007536600461057c565b60016020526000908152604090205481565b6040519081526020015b60405180910390f35b3480156100a657600080fd5b506100ba6100b536600461059e565b61013e565b005b3480156100c857600080fd5b506100876100d736600461057c565b60026020526000908152604090205481565b3480156100f557600080fd5b50600054610109906001600160a01b031681565b6040516001600160a01b039091168152602001610091565b34801561012d57600080fd5b506100ba6102e7565b6100ba61049d565b6001600160a01b0382166000908152600160208190526040909120549060ff831690036101af57606461017282606e6105f1565b61017c919061060e565b6001600160a01b038416600090815260016020526040812080549091906101a4908490610630565b909155506102959050565b8160ff166002036101e2576001600160a01b038316600090815260016020526040812080548392906101a4908490610630565b8160ff166003036102675760006101fa60028361060e565b90506102068183610643565b6001600160a01b0385166000908152600160205260408120805490919061022e908490610630565b9091555050600080546001600160a01b03168152600160205260408120805483929061025b908490610630565b90915550610295915050565b600080546001600160a01b03168152600160205260408120805483929061028f908490610630565b90915550505b6001600160a01b0383166000818152600160209081526040918290205491519182527f5afeca38b2064c23a692c4cf353015d80ab3ecc417b4f893f372690c11fbd9a6910160405180910390a2505050565b33600090815260016020526040902054806103555760405162461bcd60e51b8152602060048201526024808201527f4e6f206561726e696e677320617661696c61626c6520666f7220776974686472604482015263185dd85b60e21b60648201526084015b60405180910390fd5b3360009081526002602052604081205461036f9042610643565b905060006201518082101561039c57606461038b8460326105f1565b610395919061060e565b90506103e6565b6202a3008210156103b457606461038b84601e6105f1565b6203f4808210156103cc57606461038b8460146105f1565b60646103d98460056105f1565b6103e3919061060e565b90505b60006103f28285610643565b3360009081526001602052604080822082905581546001600160a01b03168252812080549293508492909190610429908490610630565b9091555050604051339082156108fc029083906000818181858888f1935050505015801561045b573d6000803e3d6000fd5b50604080518281526020810184905233917fdf273cb619d95419a9cd0ec88123a0538c85064229baa6363788f743fff90deb910160405180910390a250505050565b60053410156104ee5760405162461bcd60e51b815260206004820152601d60248201527f596f75206d75737420626574206174206c65617374203520756e697473000000604482015260640161034c565b336000908152600160205260408120805434929061050d908490610630565b90915550503360008181526002602052604090819020429055517f43e08d78302cdf9c94e1ffd293c2a3696139ee41cf3199b6f5eed9c7f6cc6090906105569034815260200190565b60405180910390a2565b80356001600160a01b038116811461057757600080fd5b919050565b60006020828403121561058e57600080fd5b61059782610560565b9392505050565b600080604083850312156105b157600080fd5b6105ba83610560565b9150602083013560ff811681146105d057600080fd5b809150509250929050565b634e487b7160e01b600052601160045260246000fd5b8082028115828204841417610608576106086105db565b92915050565b60008261062b57634e487b7160e01b600052601260045260246000fd5b500490565b80820180821115610608576106086105db565b81810381811115610608576106086105db56fea2646970667358221220103e742c22d8a0c66e4a2f1679aeb2b70939c6fe35b034927339da730c45046d64736f6c63430008140033",
  "devdoc": {
    "kind": "dev",
    "methods": {},
    "version": 1
  },
  "userdoc": {
    "kind": "user",
    "methods": {},
    "version": 1
  },
  "storageLayout": {
    "storage": [
      {
        "astId": 3,
        "contract": "contracts/Finance.sol:Finance",
        "label": "owner",
        "offset": 0,
        "slot": "0",
        "type": "t_address"
      },
      {
        "astId": 7,
        "contract": "contracts/Finance.sol:Finance",
        "label": "balances",
        "offset": 0,
        "slot": "1",
        "type": "t_mapping(t_address,t_uint256)"
      },
      {
        "astId": 11,
        "contract": "contracts/Finance.sol:Finance",
        "label": "lastBetTime",
        "offset": 0,
        "slot": "2",
        "type": "t_mapping(t_address,t_uint256)"
      }
    ],
    "types": {
      "t_address": {
        "encoding": "inplace",
        "label": "address",
        "numberOfBytes": "20"
      },
      "t_mapping(t_address,t_uint256)": {
        "encoding": "mapping",
        "key": "t_address",
        "label": "mapping(address => uint256)",
        "numberOfBytes": "32",
        "value": "t_uint256"
      },
      "t_uint256": {
        "encoding": "inplace",
        "label": "uint256",
        "numberOfBytes": "32"
      }
    }
  }
}