{
  "address": "0x5F49B0034EAE47B88096954962962b9997e4F430",
  "abi": [
    {
      "inputs": [
        {
          "internalType": "address",
          "name": "initialOwner",
          "type": "address"
        }
      ],
      "stateMutability": "nonpayable",
      "type": "constructor"
    },
    {
      "inputs": [
        {
          "internalType": "address",
          "name": "sender",
          "type": "address"
        },
        {
          "internalType": "uint256",
          "name": "tokenId",
          "type": "uint256"
        },
        {
          "internalType": "address",
          "name": "owner",
          "type": "address"
        }
      ],
      "name": "ERC721IncorrectOwner",
      "type": "error"
    },
    {
      "inputs": [
        {
          "internalType": "address",
          "name": "operator",
          "type": "address"
        },
        {
          "internalType": "uint256",
          "name": "tokenId",
          "type": "uint256"
        }
      ],
      "name": "ERC721InsufficientApproval",
      "type": "error"
    },
    {
      "inputs": [
        {
          "internalType": "address",
          "name": "approver",
          "type": "address"
        }
      ],
      "name": "ERC721InvalidApprover",
      "type": "error"
    },
    {
      "inputs": [
        {
          "internalType": "address",
          "name": "operator",
          "type": "address"
        }
      ],
      "name": "ERC721InvalidOperator",
      "type": "error"
    },
    {
      "inputs": [
        {
          "internalType": "address",
          "name": "owner",
          "type": "address"
        }
      ],
      "name": "ERC721InvalidOwner",
      "type": "error"
    },
    {
      "inputs": [
        {
          "internalType": "address",
          "name": "receiver",
          "type": "address"
        }
      ],
      "name": "ERC721InvalidReceiver",
      "type": "error"
    },
    {
      "inputs": [
        {
          "internalType": "address",
          "name": "sender",
          "type": "address"
        }
      ],
      "name": "ERC721InvalidSender",
      "type": "error"
    },
    {
      "inputs": [
        {
          "internalType": "uint256",
          "name": "tokenId",
          "type": "uint256"
        }
      ],
      "name": "ERC721NonexistentToken",
      "type": "error"
    },
    {
      "inputs": [],
      "name": "EnforcedPause",
      "type": "error"
    },
    {
      "inputs": [],
      "name": "ExpectedPause",
      "type": "error"
    },
    {
      "inputs": [
        {
          "internalType": "address",
          "name": "owner",
          "type": "address"
        }
      ],
      "name": "OwnableInvalidOwner",
      "type": "error"
    },
    {
      "inputs": [
        {
          "internalType": "address",
          "name": "account",
          "type": "address"
        }
      ],
      "name": "OwnableUnauthorizedAccount",
      "type": "error"
    },
    {
      "anonymous": false,
      "inputs": [
        {
          "indexed": true,
          "internalType": "address",
          "name": "owner",
          "type": "address"
        },
        {
          "indexed": true,
          "internalType": "address",
          "name": "approved",
          "type": "address"
        },
        {
          "indexed": true,
          "internalType": "uint256",
          "name": "tokenId",
          "type": "uint256"
        }
      ],
      "name": "Approval",
      "type": "event"
    },
    {
      "anonymous": false,
      "inputs": [
        {
          "indexed": true,
          "internalType": "address",
          "name": "owner",
          "type": "address"
        },
        {
          "indexed": true,
          "internalType": "address",
          "name": "operator",
          "type": "address"
        },
        {
          "indexed": false,
          "internalType": "bool",
          "name": "approved",
          "type": "bool"
        }
      ],
      "name": "ApprovalForAll",
      "type": "event"
    },
    {
      "anonymous": false,
      "inputs": [
        {
          "indexed": true,
          "internalType": "address",
          "name": "previousOwner",
          "type": "address"
        },
        {
          "indexed": true,
          "internalType": "address",
          "name": "newOwner",
          "type": "address"
        }
      ],
      "name": "OwnershipTransferred",
      "type": "event"
    },
    {
      "anonymous": false,
      "inputs": [
        {
          "indexed": false,
          "internalType": "address",
          "name": "account",
          "type": "address"
        }
      ],
      "name": "Paused",
      "type": "event"
    },
    {
      "anonymous": false,
      "inputs": [
        {
          "indexed": true,
          "internalType": "address",
          "name": "from",
          "type": "address"
        },
        {
          "indexed": true,
          "internalType": "address",
          "name": "to",
          "type": "address"
        },
        {
          "indexed": true,
          "internalType": "uint256",
          "name": "tokenId",
          "type": "uint256"
        }
      ],
      "name": "Transfer",
      "type": "event"
    },
    {
      "anonymous": false,
      "inputs": [
        {
          "indexed": false,
          "internalType": "address",
          "name": "account",
          "type": "address"
        }
      ],
      "name": "Unpaused",
      "type": "event"
    },
    {
      "inputs": [
        {
          "internalType": "string",
          "name": "_cid",
          "type": "string"
        }
      ],
      "name": "addTokenCid",
      "outputs": [],
      "stateMutability": "nonpayable",
      "type": "function"
    },
    {
      "inputs": [
        {
          "internalType": "address",
          "name": "to",
          "type": "address"
        },
        {
          "internalType": "uint256",
          "name": "tokenId",
          "type": "uint256"
        }
      ],
      "name": "approve",
      "outputs": [],
      "stateMutability": "nonpayable",
      "type": "function"
    },
    {
      "inputs": [
        {
          "internalType": "address",
          "name": "owner",
          "type": "address"
        }
      ],
      "name": "balanceOf",
      "outputs": [
        {
          "internalType": "uint256",
          "name": "",
          "type": "uint256"
        }
      ],
      "stateMutability": "view",
      "type": "function"
    },
    {
      "inputs": [],
      "name": "disclose",
      "outputs": [],
      "stateMutability": "nonpayable",
      "type": "function"
    },
    {
      "inputs": [
        {
          "internalType": "uint256",
          "name": "tokenId",
          "type": "uint256"
        }
      ],
      "name": "getApproved",
      "outputs": [
        {
          "internalType": "address",
          "name": "",
          "type": "address"
        }
      ],
      "stateMutability": "view",
      "type": "function"
    },
    {
      "inputs": [
        {
          "internalType": "address",
          "name": "_owner",
          "type": "address"
        }
      ],
      "name": "getUserNFTs",
      "outputs": [
        {
          "components": [
            {
              "internalType": "uint256",
              "name": "tokenId",
              "type": "uint256"
            },
            {
              "internalType": "string",
              "name": "tokenURI",
              "type": "string"
            }
          ],
          "internalType": "struct RoninZodiacs.NFT[]",
          "name": "",
          "type": "tuple[]"
        }
      ],
      "stateMutability": "view",
      "type": "function"
    },
    {
      "inputs": [
        {
          "internalType": "address",
          "name": "owner",
          "type": "address"
        },
        {
          "internalType": "address",
          "name": "operator",
          "type": "address"
        }
      ],
      "name": "isApprovedForAll",
      "outputs": [
        {
          "internalType": "bool",
          "name": "",
          "type": "bool"
        }
      ],
      "stateMutability": "view",
      "type": "function"
    },
    {
      "inputs": [],
      "name": "name",
      "outputs": [
        {
          "internalType": "string",
          "name": "",
          "type": "string"
        }
      ],
      "stateMutability": "view",
      "type": "function"
    },
    {
      "inputs": [],
      "name": "nextTokenId",
      "outputs": [
        {
          "internalType": "uint256",
          "name": "",
          "type": "uint256"
        }
      ],
      "stateMutability": "view",
      "type": "function"
    },
    {
      "inputs": [],
      "name": "owner",
      "outputs": [
        {
          "internalType": "address",
          "name": "",
          "type": "address"
        }
      ],
      "stateMutability": "view",
      "type": "function"
    },
    {
      "inputs": [
        {
          "internalType": "uint256",
          "name": "tokenId",
          "type": "uint256"
        }
      ],
      "name": "ownerOf",
      "outputs": [
        {
          "internalType": "address",
          "name": "",
          "type": "address"
        }
      ],
      "stateMutability": "view",
      "type": "function"
    },
    {
      "inputs": [],
      "name": "pause",
      "outputs": [],
      "stateMutability": "nonpayable",
      "type": "function"
    },
    {
      "inputs": [],
      "name": "paused",
      "outputs": [
        {
          "internalType": "bool",
          "name": "",
          "type": "bool"
        }
      ],
      "stateMutability": "view",
      "type": "function"
    },
    {
      "inputs": [],
      "name": "renounceOwnership",
      "outputs": [],
      "stateMutability": "nonpayable",
      "type": "function"
    },
    {
      "inputs": [],
      "name": "reveal",
      "outputs": [
        {
          "internalType": "bool",
          "name": "",
          "type": "bool"
        }
      ],
      "stateMutability": "view",
      "type": "function"
    },
    {
      "inputs": [
        {
          "internalType": "address",
          "name": "to",
          "type": "address"
        }
      ],
      "name": "safeMint",
      "outputs": [],
      "stateMutability": "nonpayable",
      "type": "function"
    },
    {
      "inputs": [
        {
          "internalType": "address",
          "name": "from",
          "type": "address"
        },
        {
          "internalType": "address",
          "name": "to",
          "type": "address"
        },
        {
          "internalType": "uint256",
          "name": "tokenId",
          "type": "uint256"
        }
      ],
      "name": "safeTransferFrom",
      "outputs": [],
      "stateMutability": "nonpayable",
      "type": "function"
    },
    {
      "inputs": [
        {
          "internalType": "address",
          "name": "from",
          "type": "address"
        },
        {
          "internalType": "address",
          "name": "to",
          "type": "address"
        },
        {
          "internalType": "uint256",
          "name": "tokenId",
          "type": "uint256"
        },
        {
          "internalType": "bytes",
          "name": "data",
          "type": "bytes"
        }
      ],
      "name": "safeTransferFrom",
      "outputs": [],
      "stateMutability": "nonpayable",
      "type": "function"
    },
    {
      "inputs": [
        {
          "internalType": "address",
          "name": "operator",
          "type": "address"
        },
        {
          "internalType": "bool",
          "name": "approved",
          "type": "bool"
        }
      ],
      "name": "setApprovalForAll",
      "outputs": [],
      "stateMutability": "nonpayable",
      "type": "function"
    },
    {
      "inputs": [
        {
          "internalType": "bytes4",
          "name": "interfaceId",
          "type": "bytes4"
        }
      ],
      "name": "supportsInterface",
      "outputs": [
        {
          "internalType": "bool",
          "name": "",
          "type": "bool"
        }
      ],
      "stateMutability": "view",
      "type": "function"
    },
    {
      "inputs": [],
      "name": "symbol",
      "outputs": [
        {
          "internalType": "string",
          "name": "",
          "type": "string"
        }
      ],
      "stateMutability": "view",
      "type": "function"
    },
    {
      "inputs": [
        {
          "internalType": "uint256",
          "name": "tokenId",
          "type": "uint256"
        }
      ],
      "name": "tokenURI",
      "outputs": [
        {
          "internalType": "string",
          "name": "",
          "type": "string"
        }
      ],
      "stateMutability": "view",
      "type": "function"
    },
    {
      "inputs": [
        {
          "internalType": "address",
          "name": "from",
          "type": "address"
        },
        {
          "internalType": "address",
          "name": "to",
          "type": "address"
        },
        {
          "internalType": "uint256",
          "name": "tokenId",
          "type": "uint256"
        }
      ],
      "name": "transferFrom",
      "outputs": [],
      "stateMutability": "nonpayable",
      "type": "function"
    },
    {
      "inputs": [
        {
          "internalType": "address",
          "name": "newOwner",
          "type": "address"
        }
      ],
      "name": "transferOwnership",
      "outputs": [],
      "stateMutability": "nonpayable",
      "type": "function"
    },
    {
      "inputs": [],
      "name": "unpause",
      "outputs": [],
      "stateMutability": "nonpayable",
      "type": "function"
    }
  ],
  "transactionHash": "0x4dc6197b96b0517f8c067d8afae584f1e1e0b9e9166f3dd1069ddf1ab6c61548",
  "args": [
    "0x6aD90bB24ed985F3876aDE9AE09381b1Cd180548"
  ],
  "numDeployments": 1,
  "solcInputHash": "59bd08f8a9158da6fbb4dd08fb5d53fe",
  "bytecode": "0x601460075560e060405260356080818152906200198560a03960099062000027908262000208565b503480156200003557600080fd5b50604051620019ba380380620019ba8339810160408190526200005891620002d4565b806040518060400160405280600c81526020016b526f6e696e5a6f646961637360a01b81525060405180604001604052806003815260200162525a4b60e81b8152508160009081620000ab919062000208565b506001620000ba828262000208565b50506006805460ff19169055506001600160a01b038116620000f657604051631e4fbdf760e01b81526000600482015260240160405180910390fd5b620001018162000109565b505062000306565b600680546001600160a01b03838116610100818102610100600160a81b031985161790945560405193909204169182907f8be0079c531659141344cd1fd0a4f28419497f9722a3daafe3b4186f6b6457e090600090a35050565b634e487b7160e01b600052604160045260246000fd5b600181811c908216806200018e57607f821691505b602082108103620001af57634e487b7160e01b600052602260045260246000fd5b50919050565b601f8211156200020357600081815260208120601f850160051c81016020861015620001de5750805b601f850160051c820191505b81811015620001ff57828155600101620001ea565b5050505b505050565b81516001600160401b0381111562000224576200022462000163565b6200023c8162000235845462000179565b84620001b5565b602080601f8311600181146200027457600084156200025b5750858301515b600019600386901b1c1916600185901b178555620001ff565b600085815260208120601f198616915b82811015620002a55788860151825594840194600190910190840162000284565b5085821015620002c45787850151600019600388901b60f8161c191681555b5050505050600190811b01905550565b600060208284031215620002e757600080fd5b81516001600160a01b0381168114620002ff57600080fd5b9392505050565b61166f80620003166000396000f3fe608060405234801561001057600080fd5b50600436106101735760003560e01c806370a08231116100de578063a22cb46511610097578063c87b56dd11610071578063c87b56dd14610312578063e985e9c514610325578063eaa41a3b14610338578063f2fde38b1461034057600080fd5b8063a22cb465146102df578063a475b5dd146102f2578063b88d4fde146102ff57600080fd5b806370a0823114610287578063715018a6146102a857806375794a3c146102b05780638456cb59146102b95780638da5cb5b146102c157806395d89b41146102d757600080fd5b806340d097c31161013057806340d097c31461021057806342842e0e1461022357806344ffde8e1461023657806352de4ee5146102495780635c975abb146102695780636352211e1461027457600080fd5b806301ffc9a71461017857806306fdde03146101a0578063081812fc146101b5578063095ea7b3146101e057806323b872dd146101f55780633f4ba83a14610208575b600080fd5b61018b6101863660046110ba565b610353565b60405190151581526020015b60405180910390f35b6101a86103a5565b604051610197919061112e565b6101c86101c3366004611141565b610437565b6040516001600160a01b039091168152602001610197565b6101f36101ee366004611176565b610460565b005b6101f36102033660046111a0565b61046f565b6101f36104ff565b6101f361021e3660046111dc565b610511565b6101f36102313660046111a0565b6105b1565b6101f3610244366004611283565b6105d1565b61025c6102573660046111dc565b610668565b60405161019791906112cc565b60065460ff1661018b565b6101c8610282366004611141565b61077e565b61029a6102953660046111dc565b610789565b604051908152602001610197565b6101f36107d1565b61029a600c5481565b6101f36107e3565b60065461010090046001600160a01b03166101c8565b6101a86107f3565b6101f36102ed366004611340565b610802565b600d5461018b9060ff1681565b6101f361030d36600461137c565b61080d565b6101a8610320366004611141565b610824565b61018b6103333660046113f8565b6108d7565b6101f3610905565b6101f361034e3660046111dc565b61096f565b60006001600160e01b031982166380ac58cd60e01b148061038457506001600160e01b03198216635b5e139f60e01b145b8061039f57506301ffc9a760e01b6001600160e01b03198316145b92915050565b6060600080546103b49061142b565b80601f01602080910402602001604051908101604052809291908181526020018280546103e09061142b565b801561042d5780601f106104025761010080835404028352916020019161042d565b820191906000526020600020905b81548152906001019060200180831161041057829003601f168201915b5050505050905090565b6000610442826109ad565b506000828152600460205260409020546001600160a01b031661039f565b61046b8282336109e6565b5050565b6001600160a01b03821661049e57604051633250574960e11b8152600060048201526024015b60405180910390fd5b60006104ab8383336109f3565b9050836001600160a01b0316816001600160a01b0316146104f9576040516364283d7b60e01b81526001600160a01b0380861660048301526024820184905282166044820152606401610495565b50505050565b610507610a08565b61050f610a3b565b565b600754600c54111561055e5760405162461bcd60e51b81526020600482015260166024820152753637b9903a37b5b2b7399039b29030b1b0b130b937b760511b6044820152606401610495565b61056a81600c54610a8d565b6001600160a01b0381166000908152600b602090815260408220600c80548254600181018455928552928420909101919091558054916105a983611465565b919050555050565b6105cc8383836040518060200160405280600081525061080d565b505050565b6105d9610a08565b600081511161061d5760405162461bcd60e51b815260206004820152601060248201526f555249206973206e6f7420656d70747960801b6044820152606401610495565b8060405160200161062e919061148c565b60408051601f198184030181529181526008546000908152600a60205220906106579082611509565b50600880549060006105a983611465565b6001600160a01b0381166000908152600b60205260408120546060918167ffffffffffffffff81111561069d5761069d6111f7565b6040519080825280602002602001820160405280156106e357816020015b6040805180820190915260008152606060208201528152602001906001900390816106bb5790505b50905060005b82811015610776576001600160a01b0385166000908152600b6020526040812080548390811061071b5761071b6115c9565b90600052602060002001549050604051806040016040528082815260200161074283610824565b815250838381518110610757576107576115c9565b602002602001018190525050808061076e90611465565b9150506106e9565b509392505050565b600061039f826109ad565b60006001600160a01b0382166107b5576040516322718ad960e21b815260006004820152602401610495565b506001600160a01b031660009081526003602052604090205490565b6107d9610a08565b61050f6000610aa7565b6107eb610a08565b61050f610b01565b6060600180546103b49061142b565b61046b338383610b3e565b61081884848461046f565b6104f984848484610bdd565b600d5460609060ff16610838576009610847565b6000828152600a602052604090205b80546108529061142b565b80601f016020809104026020016040519081016040528092919081815260200182805461087e9061142b565b80156108cb5780601f106108a0576101008083540402835291602001916108cb565b820191906000526020600020905b8154815290600101906020018083116108ae57829003601f168201915b50505050509050919050565b6001600160a01b03918216600090815260056020908152604080832093909416825291909152205460ff1690565b61090d610a08565b600d5460ff16156109605760405162461bcd60e51b815260206004820181905260248201527f4e465473206861766520616c7265616479206265656e20646973636c6f7365646044820152606401610495565b600d805460ff19166001179055565b610977610a08565b6001600160a01b0381166109a157604051631e4fbdf760e01b815260006004820152602401610495565b6109aa81610aa7565b50565b6000818152600260205260408120546001600160a01b03168061039f57604051637e27328960e01b815260048101849052602401610495565b6105cc8383836001610d06565b6000610a00848484610e0c565b949350505050565b6006546001600160a01b0361010090910416331461050f5760405163118cdaa760e01b8152336004820152602401610495565b610a43610e21565b6006805460ff191690557f5db9ee0a495bf2e6ff9c91a7834c1ba4fdd244a5e8aa4e537bd38aeae4b073aa335b6040516001600160a01b03909116815260200160405180910390a1565b61046b828260405180602001604052806000815250610e44565b600680546001600160a01b03838116610100818102610100600160a81b031985161790945560405193909204169182907f8be0079c531659141344cd1fd0a4f28419497f9722a3daafe3b4186f6b6457e090600090a35050565b610b09610e5b565b6006805460ff191660011790557f62e78cea01bee320cd4e420270b5ea74000d11b0c9f74754ebdbfc544b05a258610a703390565b6001600160a01b038216610b7057604051630b61174360e31b81526001600160a01b0383166004820152602401610495565b6001600160a01b03838116600081815260056020908152604080832094871680845294825291829020805460ff191686151590811790915591519182527f17307eab39ab6107e8899845ad3d59bd9653f200f220920489ca2b5937696c31910160405180910390a3505050565b6001600160a01b0383163b156104f957604051630a85bd0160e11b81526001600160a01b0384169063150b7a0290610c1f9033908890879087906004016115df565b6020604051808303816000875af1925050508015610c5a575060408051601f3d908101601f19168201909252610c579181019061161c565b60015b610cc3573d808015610c88576040519150601f19603f3d011682016040523d82523d6000602084013e610c8d565b606091505b508051600003610cbb57604051633250574960e11b81526001600160a01b0385166004820152602401610495565b805181602001fd5b6001600160e01b03198116630a85bd0160e11b14610cff57604051633250574960e11b81526001600160a01b0385166004820152602401610495565b5050505050565b8080610d1a57506001600160a01b03821615155b15610ddc576000610d2a846109ad565b90506001600160a01b03831615801590610d565750826001600160a01b0316816001600160a01b031614155b8015610d695750610d6781846108d7565b155b15610d925760405163a9fbf51f60e01b81526001600160a01b0384166004820152602401610495565b8115610dda5783856001600160a01b0316826001600160a01b03167f8c5be1e5ebec7d5bd14f71427d1e84f3dd0314c0f7b2291e5b200ac8c7c3b92560405160405180910390a45b505b5050600090815260046020526040902080546001600160a01b0319166001600160a01b0392909216919091179055565b6000610e16610e5b565b610a00848484610e7f565b60065460ff1661050f57604051638dfc202b60e01b815260040160405180910390fd5b610e4e8383610f78565b6105cc6000848484610bdd565b60065460ff161561050f5760405163d93c066560e01b815260040160405180910390fd5b6000828152600260205260408120546001600160a01b0390811690831615610eac57610eac818486610fdd565b6001600160a01b03811615610eea57610ec9600085600080610d06565b6001600160a01b038116600090815260036020526040902080546000190190555b6001600160a01b03851615610f19576001600160a01b0385166000908152600360205260409020805460010190555b60008481526002602052604080822080546001600160a01b0319166001600160a01b0389811691821790925591518793918516917fddf252ad1be2c89b69c2b068fc378daa952ba7f163c4a11628f55a4df523b3ef91a4949350505050565b6001600160a01b038216610fa257604051633250574960e11b815260006004820152602401610495565b6000610fb0838360006109f3565b90506001600160a01b038116156105cc576040516339e3563760e11b815260006004820152602401610495565b610fe8838383611041565b6105cc576001600160a01b03831661101657604051637e27328960e01b815260048101829052602401610495565b60405163177e802f60e01b81526001600160a01b038316600482015260248101829052604401610495565b60006001600160a01b03831615801590610a005750826001600160a01b0316846001600160a01b0316148061107b575061107b84846108d7565b80610a005750506000908152600460205260409020546001600160a01b03908116911614919050565b6001600160e01b0319811681146109aa57600080fd5b6000602082840312156110cc57600080fd5b81356110d7816110a4565b9392505050565b60005b838110156110f95781810151838201526020016110e1565b50506000910152565b6000815180845261111a8160208601602086016110de565b601f01601f19169290920160200192915050565b6020815260006110d76020830184611102565b60006020828403121561115357600080fd5b5035919050565b80356001600160a01b038116811461117157600080fd5b919050565b6000806040838503121561118957600080fd5b6111928361115a565b946020939093013593505050565b6000806000606084860312156111b557600080fd5b6111be8461115a565b92506111cc6020850161115a565b9150604084013590509250925092565b6000602082840312156111ee57600080fd5b6110d78261115a565b634e487b7160e01b600052604160045260246000fd5b600067ffffffffffffffff80841115611228576112286111f7565b604051601f8501601f19908116603f01168101908282118183101715611250576112506111f7565b8160405280935085815286868601111561126957600080fd5b858560208301376000602087830101525050509392505050565b60006020828403121561129557600080fd5b813567ffffffffffffffff8111156112ac57600080fd5b8201601f810184136112bd57600080fd5b610a008482356020840161120d565b60006020808301818452808551808352604092508286019150828160051b87010184880160005b8381101561133257888303603f1901855281518051845287015187840187905261131f87850182611102565b95880195935050908601906001016112f3565b509098975050505050505050565b6000806040838503121561135357600080fd5b61135c8361115a565b91506020830135801515811461137157600080fd5b809150509250929050565b6000806000806080858703121561139257600080fd5b61139b8561115a565b93506113a96020860161115a565b925060408501359150606085013567ffffffffffffffff8111156113cc57600080fd5b8501601f810187136113dd57600080fd5b6113ec8782356020840161120d565b91505092959194509250565b6000806040838503121561140b57600080fd5b6114148361115a565b91506114226020840161115a565b90509250929050565b600181811c9082168061143f57607f821691505b60208210810361145f57634e487b7160e01b600052602260045260246000fd5b50919050565b60006001820161148557634e487b7160e01b600052601160045260246000fd5b5060010190565b66697066733a2f2f60c81b8152600082516114ae8160078501602087016110de565b9190910160070192915050565b601f8211156105cc57600081815260208120601f850160051c810160208610156114e25750805b601f850160051c820191505b81811015611501578281556001016114ee565b505050505050565b815167ffffffffffffffff811115611523576115236111f7565b61153781611531845461142b565b846114bb565b602080601f83116001811461156c57600084156115545750858301515b600019600386901b1c1916600185901b178555611501565b600085815260208120601f198616915b8281101561159b5788860151825594840194600190910190840161157c565b50858210156115b95787850151600019600388901b60f8161c191681555b5050505050600190811b01905550565b634e487b7160e01b600052603260045260246000fd5b6001600160a01b038581168252841660208201526040810183905260806060820181905260009061161290830184611102565b9695505050505050565b60006020828403121561162e57600080fd5b81516110d7816110a456fea2646970667358221220cb52172c8a8bf18120aa74c1d62ccf680025e877150d4aab8be6316615c6e2ea64736f6c63430008140033697066733a2f2f516d635666426f5857425667635153447a564556645936674e4250415779664d484d4258314a73584e5a5a68514e",
  "devdoc": {
    "errors": {
      "ERC721IncorrectOwner(address,uint256,address)": [
        {
          "details": "Indicates an error related to the ownership over a particular token. Used in transfers.",
          "params": {
            "owner": "Address of the current owner of a token.",
            "sender": "Address whose tokens are being transferred.",
            "tokenId": "Identifier number of a token."
          }
        }
      ],
      "ERC721InsufficientApproval(address,uint256)": [
        {
          "details": "Indicates a failure with the `operator`s approval. Used in transfers.",
          "params": {
            "operator": "Address that may be allowed to operate on tokens without being their owner.",
            "tokenId": "Identifier number of a token."
          }
        }
      ],
      "ERC721InvalidApprover(address)": [
        {
          "details": "Indicates a failure with the `approver` of a token to be approved. Used in approvals.",
          "params": {
            "approver": "Address initiating an approval operation."
          }
        }
      ],
      "ERC721InvalidOperator(address)": [
        {
          "details": "Indicates a failure with the `operator` to be approved. Used in approvals.",
          "params": {
            "operator": "Address that may be allowed to operate on tokens without being their owner."
          }
        }
      ],
      "ERC721InvalidOwner(address)": [
        {
          "details": "Indicates that an address can't be an owner. For example, `address(0)` is a forbidden owner in EIP-20. Used in balance queries.",
          "params": {
            "owner": "Address of the current owner of a token."
          }
        }
      ],
      "ERC721InvalidReceiver(address)": [
        {
          "details": "Indicates a failure with the token `receiver`. Used in transfers.",
          "params": {
            "receiver": "Address to which tokens are being transferred."
          }
        }
      ],
      "ERC721InvalidSender(address)": [
        {
          "details": "Indicates a failure with the token `sender`. Used in transfers.",
          "params": {
            "sender": "Address whose tokens are being transferred."
          }
        }
      ],
      "ERC721NonexistentToken(uint256)": [
        {
          "details": "Indicates a `tokenId` whose `owner` is the zero address.",
          "params": {
            "tokenId": "Identifier number of a token."
          }
        }
      ],
      "EnforcedPause()": [
        {
          "details": "The operation failed because the contract is paused."
        }
      ],
      "ExpectedPause()": [
        {
          "details": "The operation failed because the contract is not paused."
        }
      ],
      "OwnableInvalidOwner(address)": [
        {
          "details": "The owner is not a valid owner account. (eg. `address(0)`)"
        }
      ],
      "OwnableUnauthorizedAccount(address)": [
        {
          "details": "The caller account is not authorized to perform an operation."
        }
      ]
    },
    "events": {
      "Approval(address,address,uint256)": {
        "details": "Emitted when `owner` enables `approved` to manage the `tokenId` token."
      },
      "ApprovalForAll(address,address,bool)": {
        "details": "Emitted when `owner` enables or disables (`approved`) `operator` to manage all of its assets."
      },
      "Paused(address)": {
        "details": "Emitted when the pause is triggered by `account`."
      },
      "Transfer(address,address,uint256)": {
        "details": "Emitted when `tokenId` token is transferred from `from` to `to`."
      },
      "Unpaused(address)": {
        "details": "Emitted when the pause is lifted by `account`."
      }
    },
    "kind": "dev",
    "methods": {
      "approve(address,uint256)": {
        "details": "See {IERC721-approve}."
      },
      "balanceOf(address)": {
        "details": "See {IERC721-balanceOf}."
      },
      "getApproved(uint256)": {
        "details": "See {IERC721-getApproved}."
      },
      "isApprovedForAll(address,address)": {
        "details": "See {IERC721-isApprovedForAll}."
      },
      "name()": {
        "details": "See {IERC721Metadata-name}."
      },
      "owner()": {
        "details": "Returns the address of the current owner."
      },
      "ownerOf(uint256)": {
        "details": "See {IERC721-ownerOf}."
      },
      "paused()": {
        "details": "Returns true if the contract is paused, and false otherwise."
      },
      "renounceOwnership()": {
        "details": "Leaves the contract without owner. It will not be possible to call `onlyOwner` functions. Can only be called by the current owner. NOTE: Renouncing ownership will leave the contract without an owner, thereby disabling any functionality that is only available to the owner."
      },
      "safeTransferFrom(address,address,uint256)": {
        "details": "See {IERC721-safeTransferFrom}."
      },
      "safeTransferFrom(address,address,uint256,bytes)": {
        "details": "See {IERC721-safeTransferFrom}."
      },
      "setApprovalForAll(address,bool)": {
        "details": "See {IERC721-setApprovalForAll}."
      },
      "supportsInterface(bytes4)": {
        "details": "See {IERC165-supportsInterface}."
      },
      "symbol()": {
        "details": "See {IERC721Metadata-symbol}."
      },
      "tokenURI(uint256)": {
        "details": "See {IERC721Metadata-tokenURI}."
      },
      "transferFrom(address,address,uint256)": {
        "details": "See {IERC721-transferFrom}."
      },
      "transferOwnership(address)": {
        "details": "Transfers ownership of the contract to a new account (`newOwner`). Can only be called by the current owner."
      }
    },
    "version": 1
  },
  "userdoc": {
    "kind": "user",
    "methods": {},
    "version": 1
  },
  "storageLayout": {
    "storage": [
      {
        "astId": 317,
        "contract": "contracts/RoninZodiacs.sol:RoninZodiacs",
        "label": "_name",
        "offset": 0,
        "slot": "0",
        "type": "t_string_storage"
      },
      {
        "astId": 319,
        "contract": "contracts/RoninZodiacs.sol:RoninZodiacs",
        "label": "_symbol",
        "offset": 0,
        "slot": "1",
        "type": "t_string_storage"
      },
      {
        "astId": 323,
        "contract": "contracts/RoninZodiacs.sol:RoninZodiacs",
        "label": "_owners",
        "offset": 0,
        "slot": "2",
        "type": "t_mapping(t_uint256,t_address)"
      },
      {
        "astId": 327,
        "contract": "contracts/RoninZodiacs.sol:RoninZodiacs",
        "label": "_balances",
        "offset": 0,
        "slot": "3",
        "type": "t_mapping(t_address,t_uint256)"
      },
      {
        "astId": 331,
        "contract": "contracts/RoninZodiacs.sol:RoninZodiacs",
        "label": "_tokenApprovals",
        "offset": 0,
        "slot": "4",
        "type": "t_mapping(t_uint256,t_address)"
      },
      {
        "astId": 337,
        "contract": "contracts/RoninZodiacs.sol:RoninZodiacs",
        "label": "_operatorApprovals",
        "offset": 0,
        "slot": "5",
        "type": "t_mapping(t_address,t_mapping(t_address,t_bool))"
      },
      {
        "astId": 1530,
        "contract": "contracts/RoninZodiacs.sol:RoninZodiacs",
        "label": "_paused",
        "offset": 0,
        "slot": "6",
        "type": "t_bool"
      },
      {
        "astId": 8,
        "contract": "contracts/RoninZodiacs.sol:RoninZodiacs",
        "label": "_owner",
        "offset": 1,
        "slot": "6",
        "type": "t_address"
      },
      {
        "astId": 3110,
        "contract": "contracts/RoninZodiacs.sol:RoninZodiacs",
        "label": "_limitToken",
        "offset": 0,
        "slot": "7",
        "type": "t_uint256"
      },
      {
        "astId": 3112,
        "contract": "contracts/RoninZodiacs.sol:RoninZodiacs",
        "label": "_uriId",
        "offset": 0,
        "slot": "8",
        "type": "t_uint256"
      },
      {
        "astId": 3115,
        "contract": "contracts/RoninZodiacs.sol:RoninZodiacs",
        "label": "_undisclosedUri",
        "offset": 0,
        "slot": "9",
        "type": "t_string_storage"
      },
      {
        "astId": 3119,
        "contract": "contracts/RoninZodiacs.sol:RoninZodiacs",
        "label": "_tokenUriMap",
        "offset": 0,
        "slot": "10",
        "type": "t_mapping(t_uint256,t_string_storage)"
      },
      {
        "astId": 3124,
        "contract": "contracts/RoninZodiacs.sol:RoninZodiacs",
        "label": "_ownedTokens",
        "offset": 0,
        "slot": "11",
        "type": "t_mapping(t_address,t_array(t_uint256)dyn_storage)"
      },
      {
        "astId": 3126,
        "contract": "contracts/RoninZodiacs.sol:RoninZodiacs",
        "label": "nextTokenId",
        "offset": 0,
        "slot": "12",
        "type": "t_uint256"
      },
      {
        "astId": 3128,
        "contract": "contracts/RoninZodiacs.sol:RoninZodiacs",
        "label": "reveal",
        "offset": 0,
        "slot": "13",
        "type": "t_bool"
      }
    ],
    "types": {
      "t_address": {
        "encoding": "inplace",
        "label": "address",
        "numberOfBytes": "20"
      },
      "t_array(t_uint256)dyn_storage": {
        "base": "t_uint256",
        "encoding": "dynamic_array",
        "label": "uint256[]",
        "numberOfBytes": "32"
      },
      "t_bool": {
        "encoding": "inplace",
        "label": "bool",
        "numberOfBytes": "1"
      },
      "t_mapping(t_address,t_array(t_uint256)dyn_storage)": {
        "encoding": "mapping",
        "key": "t_address",
        "label": "mapping(address => uint256[])",
        "numberOfBytes": "32",
        "value": "t_array(t_uint256)dyn_storage"
      },
      "t_mapping(t_address,t_bool)": {
        "encoding": "mapping",
        "key": "t_address",
        "label": "mapping(address => bool)",
        "numberOfBytes": "32",
        "value": "t_bool"
      },
      "t_mapping(t_address,t_mapping(t_address,t_bool))": {
        "encoding": "mapping",
        "key": "t_address",
        "label": "mapping(address => mapping(address => bool))",
        "numberOfBytes": "32",
        "value": "t_mapping(t_address,t_bool)"
      },
      "t_mapping(t_address,t_uint256)": {
        "encoding": "mapping",
        "key": "t_address",
        "label": "mapping(address => uint256)",
        "numberOfBytes": "32",
        "value": "t_uint256"
      },
      "t_mapping(t_uint256,t_address)": {
        "encoding": "mapping",
        "key": "t_uint256",
        "label": "mapping(uint256 => address)",
        "numberOfBytes": "32",
        "value": "t_address"
      },
      "t_mapping(t_uint256,t_string_storage)": {
        "encoding": "mapping",
        "key": "t_uint256",
        "label": "mapping(uint256 => string)",
        "numberOfBytes": "32",
        "value": "t_string_storage"
      },
      "t_string_storage": {
        "encoding": "bytes",
        "label": "string",
        "numberOfBytes": "32"
      },
      "t_uint256": {
        "encoding": "inplace",
        "label": "uint256",
        "numberOfBytes": "32"
      }
    }
  }
}