{
  "address": "0xa1AaDfAA830b5cDeD18e4522Db038BCC3f1B9A51",
  "abi": [
    {
      "inputs": [
        {
          "internalType": "address",
          "name": "owner",
          "type": "address"
        },
        {
          "internalType": "address",
          "name": "_ronKeToken",
          "type": "address"
        },
        {
          "internalType": "address",
          "name": "_ronkenNft",
          "type": "address"
        }
      ],
      "stateMutability": "nonpayable",
      "type": "constructor"
    },
    {
      "inputs": [
        {
          "internalType": "address",
          "name": "owner",
          "type": "address"
        }
      ],
      "name": "OwnableInvalidOwner",
      "type": "error"
    },
    {
      "inputs": [
        {
          "internalType": "address",
          "name": "account",
          "type": "address"
        }
      ],
      "name": "OwnableUnauthorizedAccount",
      "type": "error"
    },
    {
      "inputs": [],
      "name": "ReentrancyGuardReentrantCall",
      "type": "error"
    },
    {
      "anonymous": false,
      "inputs": [
        {
          "indexed": true,
          "internalType": "address",
          "name": "previousOwner",
          "type": "address"
        },
        {
          "indexed": true,
          "internalType": "address",
          "name": "newOwner",
          "type": "address"
        }
      ],
      "name": "OwnershipTransferred",
      "type": "event"
    },
    {
      "anonymous": false,
      "inputs": [
        {
          "indexed": true,
          "internalType": "address",
          "name": "player",
          "type": "address"
        },
        {
          "indexed": false,
          "internalType": "uint256",
          "name": "nftId",
          "type": "uint256"
        }
      ],
      "name": "RaceStarted",
      "type": "event"
    },
    {
      "anonymous": false,
      "inputs": [
        {
          "indexed": true,
          "internalType": "address",
          "name": "player",
          "type": "address"
        },
        {
          "indexed": false,
          "internalType": "uint256",
          "name": "amount",
          "type": "uint256"
        }
      ],
      "name": "RewardGiven",
      "type": "event"
    },
    {
      "anonymous": false,
      "inputs": [
        {
          "indexed": true,
          "internalType": "address",
          "name": "player",
          "type": "address"
        },
        {
          "indexed": false,
          "internalType": "uint256",
          "name": "amount",
          "type": "uint256"
        },
        {
          "indexed": false,
          "internalType": "uint256",
          "name": "penalty",
          "type": "uint256"
        }
      ],
      "name": "Withdrawal",
      "type": "event"
    },
    {
      "inputs": [],
      "name": "COMMON",
      "outputs": [
        {
          "internalType": "bytes32",
          "name": "",
          "type": "bytes32"
        }
      ],
      "stateMutability": "view",
      "type": "function"
    },
    {
      "inputs": [],
      "name": "EPIC",
      "outputs": [
        {
          "internalType": "bytes32",
          "name": "",
          "type": "bytes32"
        }
      ],
      "stateMutability": "view",
      "type": "function"
    },
    {
      "inputs": [],
      "name": "RARE",
      "outputs": [
        {
          "internalType": "bytes32",
          "name": "",
          "type": "bytes32"
        }
      ],
      "stateMutability": "view",
      "type": "function"
    },
    {
      "inputs": [],
      "name": "UNCOMMON",
      "outputs": [
        {
          "internalType": "bytes32",
          "name": "",
          "type": "bytes32"
        }
      ],
      "stateMutability": "view",
      "type": "function"
    },
    {
      "inputs": [],
      "name": "firstPlaceReward",
      "outputs": [
        {
          "internalType": "uint256",
          "name": "",
          "type": "uint256"
        }
      ],
      "stateMutability": "view",
      "type": "function"
    },
    {
      "inputs": [
        {
          "internalType": "address",
          "name": "player",
          "type": "address"
        },
        {
          "internalType": "uint256",
          "name": "_nftID",
          "type": "uint256"
        },
        {
          "internalType": "uint8",
          "name": "_position",
          "type": "uint8"
        }
      ],
      "name": "grantReward",
      "outputs": [],
      "stateMutability": "nonpayable",
      "type": "function"
    },
    {
      "inputs": [],
      "name": "lastResetTime",
      "outputs": [
        {
          "internalType": "uint256",
          "name": "",
          "type": "uint256"
        }
      ],
      "stateMutability": "view",
      "type": "function"
    },
    {
      "inputs": [],
      "name": "maxId",
      "outputs": [
        {
          "internalType": "uint256",
          "name": "",
          "type": "uint256"
        }
      ],
      "stateMutability": "view",
      "type": "function"
    },
    {
      "inputs": [],
      "name": "minAmountRace",
      "outputs": [
        {
          "internalType": "uint256",
          "name": "",
          "type": "uint256"
        }
      ],
      "stateMutability": "view",
      "type": "function"
    },
    {
      "inputs": [
        {
          "internalType": "uint256",
          "name": "",
          "type": "uint256"
        }
      ],
      "name": "nftOwner",
      "outputs": [
        {
          "internalType": "address",
          "name": "",
          "type": "address"
        }
      ],
      "stateMutability": "view",
      "type": "function"
    },
    {
      "inputs": [
        {
          "internalType": "uint256",
          "name": "",
          "type": "uint256"
        },
        {
          "internalType": "uint256",
          "name": "",
          "type": "uint256"
        }
      ],
      "name": "nftRewards",
      "outputs": [
        {
          "internalType": "uint256",
          "name": "amount",
          "type": "uint256"
        },
        {
          "internalType": "uint256",
          "name": "timestamp",
          "type": "uint256"
        },
        {
          "internalType": "bool",
          "name": "withdrawn",
          "type": "bool"
        }
      ],
      "stateMutability": "view",
      "type": "function"
    },
    {
      "inputs": [
        {
          "internalType": "uint256",
          "name": "",
          "type": "uint256"
        }
      ],
      "name": "oilBalances",
      "outputs": [
        {
          "internalType": "uint256",
          "name": "",
          "type": "uint256"
        }
      ],
      "stateMutability": "view",
      "type": "function"
    },
    {
      "inputs": [],
      "name": "owner",
      "outputs": [
        {
          "internalType": "address",
          "name": "",
          "type": "address"
        }
      ],
      "stateMutability": "view",
      "type": "function"
    },
    {
      "inputs": [
        {
          "internalType": "uint256",
          "name": "_nftID",
          "type": "uint256"
        },
        {
          "internalType": "bytes32",
          "name": "_rarity",
          "type": "bytes32"
        }
      ],
      "name": "raceStart",
      "outputs": [],
      "stateMutability": "nonpayable",
      "type": "function"
    },
    {
      "inputs": [],
      "name": "renounceOwnership",
      "outputs": [],
      "stateMutability": "nonpayable",
      "type": "function"
    },
    {
      "inputs": [],
      "name": "resetAllNftOwners",
      "outputs": [],
      "stateMutability": "nonpayable",
      "type": "function"
    },
    {
      "inputs": [
        {
          "internalType": "address",
          "name": "",
          "type": "address"
        }
      ],
      "name": "rewardCount",
      "outputs": [
        {
          "internalType": "uint256",
          "name": "",
          "type": "uint256"
        }
      ],
      "stateMutability": "view",
      "type": "function"
    },
    {
      "inputs": [],
      "name": "ronKeTokenContract",
      "outputs": [
        {
          "internalType": "contract IERC20",
          "name": "",
          "type": "address"
        }
      ],
      "stateMutability": "view",
      "type": "function"
    },
    {
      "inputs": [],
      "name": "ronkenNftContract",
      "outputs": [
        {
          "internalType": "contract IERC721",
          "name": "",
          "type": "address"
        }
      ],
      "stateMutability": "view",
      "type": "function"
    },
    {
      "inputs": [],
      "name": "secondPlaceReward",
      "outputs": [
        {
          "internalType": "uint256",
          "name": "",
          "type": "uint256"
        }
      ],
      "stateMutability": "view",
      "type": "function"
    },
    {
      "inputs": [],
      "name": "thirdPlaceReward",
      "outputs": [
        {
          "internalType": "uint256",
          "name": "",
          "type": "uint256"
        }
      ],
      "stateMutability": "view",
      "type": "function"
    },
    {
      "inputs": [
        {
          "internalType": "address",
          "name": "newOwner",
          "type": "address"
        }
      ],
      "name": "transferOwnership",
      "outputs": [],
      "stateMutability": "nonpayable",
      "type": "function"
    },
    {
      "inputs": [
        {
          "internalType": "uint256",
          "name": "_first",
          "type": "uint256"
        },
        {
          "internalType": "uint256",
          "name": "_second",
          "type": "uint256"
        },
        {
          "internalType": "uint256",
          "name": "_third",
          "type": "uint256"
        }
      ],
      "name": "updateRewards",
      "outputs": [],
      "stateMutability": "nonpayable",
      "type": "function"
    },
    {
      "inputs": [
        {
          "internalType": "uint256",
          "name": "_nftID",
          "type": "uint256"
        }
      ],
      "name": "withdrawEarnings",
      "outputs": [],
      "stateMutability": "nonpayable",
      "type": "function"
    }
  ],
  "transactionHash": "0x2abb0a077156678888f0a4b5ff569ba0a3794d4f88adf0c0ae22ff160d66e428",
  "args": [
    "0x6aD90bB24ed985F3876aDE9AE09381b1Cd180548",
    "0xF9B63B6215E2C345FC769F4349401878c2Ec22Ce",
    "0x4898E00b60D6d34D0823D2CCd8D759FD3F03f4B5"
  ],
  "numDeployments": 1,
  "solcInputHash": "c22cdb4bf625e096481384317254f581",
  "bytecode": "0x6080604052600480546001600160a01b031916739b229d8e80caacd4c3e1ac4326963a8ab0712b0b1790553480156200003757600080fd5b5060405162001586380380620015868339810160408190526200005a916200016a565b826001600160a01b0381166200008a57604051631e4fbdf760e01b81526000600482015260240160405180910390fd5b6200009581620000fd565b5060018055600280546001600160a01b039384166001600160a01b0319918216179091556003805492909316911617905550676f05b59d3b200000600a55674563918244f40000600b556729a2241af62c0000600c55671bc16d674ec80000600d55620001b4565b600080546001600160a01b038381166001600160a01b0319831681178455604051919092169283917f8be0079c531659141344cd1fd0a4f28419497f9722a3daafe3b4186f6b6457e09190a35050565b80516001600160a01b03811681146200016557600080fd5b919050565b6000806000606084860312156200018057600080fd5b6200018b846200014d565b92506200019b602085016200014d565b9150620001ab604085016200014d565b90509250925092565b6113c280620001c46000396000f3fe608060405234801561001057600080fd5b50600436106101585760003560e01c80638467db1c116100c3578063b5af960d1161007c578063b5af960d146102b3578063c5ea3c65146102d3578063e0b8fd86146102dc578063ee861656146102ee578063f2fde38b14610301578063fd7318371461031457600080fd5b80638467db1c146102455780638889342f146102535780638da5cb5b14610273578063a217712414610284578063a23919f51461028d578063b37f2590146102a057600080fd5b80636e70096e116101155780636e70096e146102025780637063231814610215578063715018a61461021d5780637a555e9e146102255780637c8874301461022e578063816171c01461023757600080fd5b8063063de2fb1461015d5780630676cf141461018d57806319088f1f146101a257806319d97e88146101b957806346e6a86c146101c257806352eac179146101d2575b600080fd5b600254610170906001600160a01b031681565b6040516001600160a01b0390911681526020015b60405180910390f35b6101a061019b3660046111bc565b61033d565b005b6101ab600a5481565b604051908152602001610184565b6101ab600d5481565b6101ab6521a7a6a6a7a760d11b81565b6101e56101e03660046111bc565b6106d6565b604080519384526020840192909252151590820152606001610184565b6101a06102103660046111de565b61071b565b6101a0610b06565b6101a0610c50565b6101ab600c5481565b6101ab600b5481565b6101ab635241524560e01b81565b6101ab634550494360e01b81565b6101ab6102613660046111de565b60056020526000908152604090205481565b6000546001600160a01b0316610170565b6101ab600e5481565b6101a061029b366004611213565b610c64565b6101a06102ae366004611259565b610fba565b6101ab6102c1366004611285565b60076020526000908152604090205481565b6101ab60095481565b6101ab672aa721a7a6a6a7a760c11b81565b600354610170906001600160a01b031681565b6101a061030f366004611285565b610fd0565b6101706103223660046111de565b6006602052600090815260409020546001600160a01b031681565b600d546002546040516370a0823160e01b8152336004820181905292916001600160a01b0316906370a0823190602401602060405180830381865afa15801561038a573d6000803e3d6000fd5b505050506040513d601f19601f820116820180604052508101906103ae91906112a7565b10156103f65760405162461bcd60e51b8152602060048201526012602482015271496e73756666696369656e742066756e647360701b60448201526064015b60405180910390fd5b600254600d5460405163095ea7b360e01b815230600482015260248101919091526001600160a01b039091169063095ea7b3906044016020604051808303816000875af115801561044b573d6000803e3d6000fd5b505050506040513d601f19601f8201168201806040525081019061046f91906112c0565b6104ad5760405162461bcd60e51b815260206004820152600f60248201526e105c1c1c9bdd985b0819985a5b1959608a1b60448201526064016103ed565b600254600d546040516323b872dd60e01b815233600482015230602482015260448101919091526001600160a01b03909116906323b872dd906064016020604051808303816000875af1158015610508573d6000803e3d6000fd5b505050506040513d601f19601f8201168201806040525081019061052c91906112c0565b6105705760405162461bcd60e51b8152602060048201526015602482015274151bdad95b881d1c985b9cd9995c8819985a5b1959605a1b60448201526064016103ed565b6000838152600660205260409020546001600160a01b03166105f757610596838361100b565b600083815260066020908152604080832080546001600160a01b0319166001600160a01b038616179055600590915281208054600f92906105d89084906112f8565b9091555050600980549060006105ed83611311565b919050555061068e565b600083815260066020908152604080832080546001600160a01b0319166001600160a01b0386161790556005909152902054806106685760405162461bcd60e51b815260206004820152600f60248201526e139bdd08195b9bdd59da08199d595b608a1b60448201526064016103ed565b60008481526005602052604081208054600f92906106879084906112f8565b9091555050505b806001600160a01b03167fad88d7f08ab3397d16da82ca9e5ea036e2e84291f564f3c42915b8bcc74e00f9846040516106c991815260200190565b60405180910390a2505050565b600860205281600052604060002081815481106106f257600080fd5b600091825260209091206003909102018054600182015460029092015490935090915060ff1683565b610723611115565b6000818152600660205260409020546001600160a01b031633146107895760405162461bcd60e51b815260206004820152601760248201527f596f7520646f206e6f74206f776e2074686973204e465400000000000000000060448201526064016103ed565b600047116107ce5760405162461bcd60e51b8152602060048201526012602482015271496e73756666696369656e742066756e647360701b60448201526064016103ed565b6000818152600860205260408120908042815b8454811015610943578481815481106107fc576107fc61132a565b600091825260209091206002600390920201015460ff1661093157600085828154811061082b5761082b61132a565b9060005260206000209060030201600101548361084891906112f8565b9050600086838154811061085e5761085e61132a565b9060005260206000209060030201600001549050620151808210156108a557606461088a826032611340565b6108949190611357565b61089e9086611379565b94506108ec565b6202a3008210156108bd57606461088a82601e611340565b6203f4808210156108ec5760646108d5826014611340565b6108df9190611357565b6108e99086611379565b94505b6108f68187611379565b9550600187848154811061090c5761090c61132a565b60009182526020909120600390910201600201805460ff191691151591909117905550505b8061093b81611311565b9150506107e1565b50600083116109a05760405162461bcd60e51b8152602060048201526024808201527f4e6f206561726e696e677320617661696c61626c6520666f7220776974686472604482015263185dd85b60e21b60648201526084016103ed565b60006109ac83856112f8565b6002549091506001600160a01b031663a9059cbb6109d26000546001600160a01b031690565b6040516001600160e01b031960e084901b1681526001600160a01b039091166004820152602481018690526044016020604051808303816000875af1158015610a1f573d6000803e3d6000fd5b505050506040513d601f19601f82011682018060405250810190610a4391906112c0565b5060025460405163a9059cbb60e01b8152336004820152602481018390526001600160a01b039091169063a9059cbb906044016020604051808303816000875af1158015610a95573d6000803e3d6000fd5b505050506040513d601f19601f82011682018060405250810190610ab991906112c0565b50604080518281526020810185905233917fdf273cb619d95419a9cd0ec88123a0538c85064229baa6363788f743fff90deb910160405180910390a25050505050610b0360018055565b50565b600e544290610b189062015180611379565b8111610b5d5760405162461bcd60e51b81526020600482015260146024820152732932b9b2ba1034b99037b71031b7b7b63237bbb760611b60448201526064016103ed565b333214610ba35760405162461bcd60e51b8152602060048201526014602482015273139bc818dbdb9d1c9858dd1cc8185b1b1bddd95960621b60448201526064016103ed565b6004546001600160a01b03163314610c0c5760405162461bcd60e51b815260206004820152602660248201527f53656e646572206973206e6f7420617574686f72697a656420746f207265736560448201526574204e46547360d01b60648201526084016103ed565b600e81905560005b600954811015610c4c57600081815260066020526040902080546001600160a01b031916905580610c4481611311565b915050610c14565b5050565b610c5861113f565b610c62600061116c565b565b610c6c61113f565b6002546040516370a0823160e01b81523060048201526000916001600160a01b0316906370a0823190602401602060405180830381865afa158015610cb5573d6000803e3d6000fd5b505050506040513d601f19601f82011682018060405250810190610cd991906112a7565b11610d265760405162461bcd60e51b815260206004820152601e60248201527f496e73756666696369656e742066756e647320696e20636f6e7472616374000060448201526064016103ed565b60008160ff16600103610d3c5750600a54610d68565b8160ff16600203610d505750600b54610d68565b8160ff16600303610d645750600c54610d68565b5060005b60008111610db85760405162461bcd60e51b815260206004820152601b60248201527f4e6f2072657761726420666f72207468697320706f736974696f6e000000000060448201526064016103ed565b6002546040516370a0823160e01b815230600482015282916001600160a01b0316906370a0823190602401602060405180830381865afa158015610e00573d6000803e3d6000fd5b505050506040513d601f19601f82011682018060405250810190610e2491906112a7565b1015610e725760405162461bcd60e51b815260206004820152601e60248201527f496e73756666696369656e742066756e647320696e20636f6e7472616374000060448201526064016103ed565b6001600160a01b0384166000908152600760205260408120805491610e9683611311565b909155505060008381526008602090815260408083208151606081018352858152428185019081528184018681528354600180820186559488529590962091516003909502909101938455519083015591516002918201805460ff191691151591909117905554905163a9059cbb60e01b81526001600160a01b038681166004830152602482018490529091169063a9059cbb906044016020604051808303816000875af1158015610f4c573d6000803e3d6000fd5b505050506040513d601f19601f82011682018060405250810190610f7091906112c0565b50836001600160a01b03167f3ad0c8d1bbd63d54c5f14180eae95cab7c2420b2dbb90603a6e5d206668f52ec82604051610fac91815260200190565b60405180910390a250505050565b610fc261113f565b600a92909255600b55600c55565b610fd861113f565b6001600160a01b03811661100257604051631e4fbdf760e01b8152600060048201526024016103ed565b610b038161116c565b6521a7a6a6a7a760d11b81148061102c5750672aa721a7a6a6a7a760c11b81145b8061103d5750635241524560e01b81145b8061104e5750634550494360e01b81145b6110895760405162461bcd60e51b815260206004820152600c60248201526b57726f6e672072617269747960a01b60448201526064016103ed565b6521a7a6a6a7a760d11b81036110ac576000828152600560205260409020601e90555b672aa721a7a6a6a7a760c11b81036110d1576000828152600560205260409020602d90555b635241524560e01b81036110f2576000828152600560205260409020603c90555b634550494360e01b8103610c4c57506000908152600560205260409020604b9055565b60026001540361113857604051633ee5aeb560e01b815260040160405180910390fd5b6002600155565b6000546001600160a01b03163314610c625760405163118cdaa760e01b81523360048201526024016103ed565b600080546001600160a01b038381166001600160a01b0319831681178455604051919092169283917f8be0079c531659141344cd1fd0a4f28419497f9722a3daafe3b4186f6b6457e09190a35050565b600080604083850312156111cf57600080fd5b50508035926020909101359150565b6000602082840312156111f057600080fd5b5035919050565b80356001600160a01b038116811461120e57600080fd5b919050565b60008060006060848603121561122857600080fd5b611231846111f7565b925060208401359150604084013560ff8116811461124e57600080fd5b809150509250925092565b60008060006060848603121561126e57600080fd5b505081359360208301359350604090920135919050565b60006020828403121561129757600080fd5b6112a0826111f7565b9392505050565b6000602082840312156112b957600080fd5b5051919050565b6000602082840312156112d257600080fd5b815180151581146112a057600080fd5b634e487b7160e01b600052601160045260246000fd5b8181038181111561130b5761130b6112e2565b92915050565b600060018201611323576113236112e2565b5060010190565b634e487b7160e01b600052603260045260246000fd5b808202811582820484141761130b5761130b6112e2565b60008261137457634e487b7160e01b600052601260045260246000fd5b500490565b8082018082111561130b5761130b6112e256fea2646970667358221220217900c6f86b23fc7bf311a14a3a063dbc170029db61a05d1ac3aadf3dbdacf964736f6c63430008140033",
  "devdoc": {
    "errors": {
      "OwnableInvalidOwner(address)": [
        {
          "details": "The owner is not a valid owner account. (eg. `address(0)`)"
        }
      ],
      "OwnableUnauthorizedAccount(address)": [
        {
          "details": "The caller account is not authorized to perform an operation."
        }
      ],
      "ReentrancyGuardReentrantCall()": [
        {
          "details": "Unauthorized reentrant call."
        }
      ]
    },
    "kind": "dev",
    "methods": {
      "owner()": {
        "details": "Returns the address of the current owner."
      },
      "renounceOwnership()": {
        "details": "Leaves the contract without owner. It will not be possible to call `onlyOwner` functions. Can only be called by the current owner. NOTE: Renouncing ownership will leave the contract without an owner, thereby disabling any functionality that is only available to the owner."
      },
      "transferOwnership(address)": {
        "details": "Transfers ownership of the contract to a new account (`newOwner`). Can only be called by the current owner."
      }
    },
    "version": 1
  },
  "userdoc": {
    "kind": "user",
    "methods": {},
    "version": 1
  },
  "storageLayout": {
    "storage": [
      {
        "astId": 8,
        "contract": "contracts/Finance.sol:Finance",
        "label": "_owner",
        "offset": 0,
        "slot": "0",
        "type": "t_address"
      },
      {
        "astId": 1575,
        "contract": "contracts/Finance.sol:Finance",
        "label": "_status",
        "offset": 0,
        "slot": "1",
        "type": "t_uint256"
      },
      {
        "astId": 3099,
        "contract": "contracts/Finance.sol:Finance",
        "label": "ronKeTokenContract",
        "offset": 0,
        "slot": "2",
        "type": "t_contract(IERC20)362"
      },
      {
        "astId": 3102,
        "contract": "contracts/Finance.sol:Finance",
        "label": "ronkenNftContract",
        "offset": 0,
        "slot": "3",
        "type": "t_contract(IERC721)1488"
      },
      {
        "astId": 3105,
        "contract": "contracts/Finance.sol:Finance",
        "label": "walletReset",
        "offset": 0,
        "slot": "4",
        "type": "t_address"
      },
      {
        "astId": 3128,
        "contract": "contracts/Finance.sol:Finance",
        "label": "oilBalances",
        "offset": 0,
        "slot": "5",
        "type": "t_mapping(t_uint256,t_uint256)"
      },
      {
        "astId": 3132,
        "contract": "contracts/Finance.sol:Finance",
        "label": "nftOwner",
        "offset": 0,
        "slot": "6",
        "type": "t_mapping(t_uint256,t_address)"
      },
      {
        "astId": 3136,
        "contract": "contracts/Finance.sol:Finance",
        "label": "rewardCount",
        "offset": 0,
        "slot": "7",
        "type": "t_mapping(t_address,t_uint256)"
      },
      {
        "astId": 3142,
        "contract": "contracts/Finance.sol:Finance",
        "label": "nftRewards",
        "offset": 0,
        "slot": "8",
        "type": "t_mapping(t_uint256,t_array(t_struct(Reward)3112_storage)dyn_storage)"
      },
      {
        "astId": 3144,
        "contract": "contracts/Finance.sol:Finance",
        "label": "maxId",
        "offset": 0,
        "slot": "9",
        "type": "t_uint256"
      },
      {
        "astId": 3146,
        "contract": "contracts/Finance.sol:Finance",
        "label": "firstPlaceReward",
        "offset": 0,
        "slot": "10",
        "type": "t_uint256"
      },
      {
        "astId": 3148,
        "contract": "contracts/Finance.sol:Finance",
        "label": "secondPlaceReward",
        "offset": 0,
        "slot": "11",
        "type": "t_uint256"
      },
      {
        "astId": 3150,
        "contract": "contracts/Finance.sol:Finance",
        "label": "thirdPlaceReward",
        "offset": 0,
        "slot": "12",
        "type": "t_uint256"
      },
      {
        "astId": 3152,
        "contract": "contracts/Finance.sol:Finance",
        "label": "minAmountRace",
        "offset": 0,
        "slot": "13",
        "type": "t_uint256"
      },
      {
        "astId": 3174,
        "contract": "contracts/Finance.sol:Finance",
        "label": "lastResetTime",
        "offset": 0,
        "slot": "14",
        "type": "t_uint256"
      }
    ],
    "types": {
      "t_address": {
        "encoding": "inplace",
        "label": "address",
        "numberOfBytes": "20"
      },
      "t_array(t_struct(Reward)3112_storage)dyn_storage": {
        "base": "t_struct(Reward)3112_storage",
        "encoding": "dynamic_array",
        "label": "struct Finance.Reward[]",
        "numberOfBytes": "32"
      },
      "t_bool": {
        "encoding": "inplace",
        "label": "bool",
        "numberOfBytes": "1"
      },
      "t_contract(IERC20)362": {
        "encoding": "inplace",
        "label": "contract IERC20",
        "numberOfBytes": "20"
      },
      "t_contract(IERC721)1488": {
        "encoding": "inplace",
        "label": "contract IERC721",
        "numberOfBytes": "20"
      },
      "t_mapping(t_address,t_uint256)": {
        "encoding": "mapping",
        "key": "t_address",
        "label": "mapping(address => uint256)",
        "numberOfBytes": "32",
        "value": "t_uint256"
      },
      "t_mapping(t_uint256,t_address)": {
        "encoding": "mapping",
        "key": "t_uint256",
        "label": "mapping(uint256 => address)",
        "numberOfBytes": "32",
        "value": "t_address"
      },
      "t_mapping(t_uint256,t_array(t_struct(Reward)3112_storage)dyn_storage)": {
        "encoding": "mapping",
        "key": "t_uint256",
        "label": "mapping(uint256 => struct Finance.Reward[])",
        "numberOfBytes": "32",
        "value": "t_array(t_struct(Reward)3112_storage)dyn_storage"
      },
      "t_mapping(t_uint256,t_uint256)": {
        "encoding": "mapping",
        "key": "t_uint256",
        "label": "mapping(uint256 => uint256)",
        "numberOfBytes": "32",
        "value": "t_uint256"
      },
      "t_struct(Reward)3112_storage": {
        "encoding": "inplace",
        "label": "struct Finance.Reward",
        "members": [
          {
            "astId": 3107,
            "contract": "contracts/Finance.sol:Finance",
            "label": "amount",
            "offset": 0,
            "slot": "0",
            "type": "t_uint256"
          },
          {
            "astId": 3109,
            "contract": "contracts/Finance.sol:Finance",
            "label": "timestamp",
            "offset": 0,
            "slot": "1",
            "type": "t_uint256"
          },
          {
            "astId": 3111,
            "contract": "contracts/Finance.sol:Finance",
            "label": "withdrawn",
            "offset": 0,
            "slot": "2",
            "type": "t_bool"
          }
        ],
        "numberOfBytes": "96"
      },
      "t_uint256": {
        "encoding": "inplace",
        "label": "uint256",
        "numberOfBytes": "32"
      }
    }
  }
}