{
  "address": "0x397fF89F119f331a5E84B8B8533Fc07F1e45C7A6",
  "abi": [
    {
      "inputs": [
        {
          "internalType": "address",
          "name": "owner",
          "type": "address"
        },
        {
          "internalType": "address",
          "name": "_ronKeToken",
          "type": "address"
        }
      ],
      "stateMutability": "nonpayable",
      "type": "constructor"
    },
    {
      "inputs": [
        {
          "internalType": "address",
          "name": "owner",
          "type": "address"
        }
      ],
      "name": "OwnableInvalidOwner",
      "type": "error"
    },
    {
      "inputs": [
        {
          "internalType": "address",
          "name": "account",
          "type": "address"
        }
      ],
      "name": "OwnableUnauthorizedAccount",
      "type": "error"
    },
    {
      "anonymous": false,
      "inputs": [
        {
          "indexed": true,
          "internalType": "address",
          "name": "previousOwner",
          "type": "address"
        },
        {
          "indexed": true,
          "internalType": "address",
          "name": "newOwner",
          "type": "address"
        }
      ],
      "name": "OwnershipTransferred",
      "type": "event"
    },
    {
      "anonymous": false,
      "inputs": [
        {
          "indexed": true,
          "internalType": "address",
          "name": "player",
          "type": "address"
        },
        {
          "indexed": false,
          "internalType": "uint256",
          "name": "nftId",
          "type": "uint256"
        }
      ],
      "name": "RaceStarted",
      "type": "event"
    },
    {
      "anonymous": false,
      "inputs": [
        {
          "indexed": true,
          "internalType": "address",
          "name": "player",
          "type": "address"
        },
        {
          "indexed": false,
          "internalType": "uint256",
          "name": "amount",
          "type": "uint256"
        }
      ],
      "name": "RewardGiven",
      "type": "event"
    },
    {
      "anonymous": false,
      "inputs": [
        {
          "indexed": true,
          "internalType": "address",
          "name": "player",
          "type": "address"
        },
        {
          "indexed": false,
          "internalType": "uint256",
          "name": "amount",
          "type": "uint256"
        },
        {
          "indexed": false,
          "internalType": "uint256",
          "name": "penalty",
          "type": "uint256"
        }
      ],
      "name": "Withdrawal",
      "type": "event"
    },
    {
      "inputs": [],
      "name": "COMMON",
      "outputs": [
        {
          "internalType": "bytes32",
          "name": "",
          "type": "bytes32"
        }
      ],
      "stateMutability": "view",
      "type": "function"
    },
    {
      "inputs": [],
      "name": "EPIC",
      "outputs": [
        {
          "internalType": "bytes32",
          "name": "",
          "type": "bytes32"
        }
      ],
      "stateMutability": "view",
      "type": "function"
    },
    {
      "inputs": [],
      "name": "RARE",
      "outputs": [
        {
          "internalType": "bytes32",
          "name": "",
          "type": "bytes32"
        }
      ],
      "stateMutability": "view",
      "type": "function"
    },
    {
      "inputs": [],
      "name": "UNCOMMON",
      "outputs": [
        {
          "internalType": "bytes32",
          "name": "",
          "type": "bytes32"
        }
      ],
      "stateMutability": "view",
      "type": "function"
    },
    {
      "inputs": [
        {
          "internalType": "address",
          "name": "player",
          "type": "address"
        },
        {
          "internalType": "uint256",
          "name": "_nftID",
          "type": "uint256"
        },
        {
          "internalType": "uint8",
          "name": "_position",
          "type": "uint8"
        }
      ],
      "name": "grantReward",
      "outputs": [],
      "stateMutability": "nonpayable",
      "type": "function"
    },
    {
      "inputs": [],
      "name": "maxId",
      "outputs": [
        {
          "internalType": "uint256",
          "name": "",
          "type": "uint256"
        }
      ],
      "stateMutability": "view",
      "type": "function"
    },
    {
      "inputs": [
        {
          "internalType": "uint256",
          "name": "",
          "type": "uint256"
        }
      ],
      "name": "nftOwner",
      "outputs": [
        {
          "internalType": "address",
          "name": "",
          "type": "address"
        }
      ],
      "stateMutability": "view",
      "type": "function"
    },
    {
      "inputs": [
        {
          "internalType": "uint256",
          "name": "",
          "type": "uint256"
        },
        {
          "internalType": "uint256",
          "name": "",
          "type": "uint256"
        }
      ],
      "name": "nftRewards",
      "outputs": [
        {
          "internalType": "uint256",
          "name": "amount",
          "type": "uint256"
        },
        {
          "internalType": "uint256",
          "name": "timestamp",
          "type": "uint256"
        },
        {
          "internalType": "bool",
          "name": "withdrawn",
          "type": "bool"
        }
      ],
      "stateMutability": "view",
      "type": "function"
    },
    {
      "inputs": [
        {
          "internalType": "uint256",
          "name": "",
          "type": "uint256"
        }
      ],
      "name": "oilBalances",
      "outputs": [
        {
          "internalType": "uint256",
          "name": "",
          "type": "uint256"
        }
      ],
      "stateMutability": "view",
      "type": "function"
    },
    {
      "inputs": [],
      "name": "owner",
      "outputs": [
        {
          "internalType": "address",
          "name": "",
          "type": "address"
        }
      ],
      "stateMutability": "view",
      "type": "function"
    },
    {
      "inputs": [
        {
          "internalType": "uint256",
          "name": "_nftID",
          "type": "uint256"
        },
        {
          "internalType": "bytes32",
          "name": "_rarity",
          "type": "bytes32"
        }
      ],
      "name": "raceStart",
      "outputs": [],
      "stateMutability": "nonpayable",
      "type": "function"
    },
    {
      "inputs": [],
      "name": "renounceOwnership",
      "outputs": [],
      "stateMutability": "nonpayable",
      "type": "function"
    },
    {
      "inputs": [],
      "name": "resetAllNftOwners",
      "outputs": [],
      "stateMutability": "nonpayable",
      "type": "function"
    },
    {
      "inputs": [
        {
          "internalType": "address",
          "name": "",
          "type": "address"
        }
      ],
      "name": "rewardCount",
      "outputs": [
        {
          "internalType": "uint256",
          "name": "",
          "type": "uint256"
        }
      ],
      "stateMutability": "view",
      "type": "function"
    },
    {
      "inputs": [
        {
          "internalType": "address",
          "name": "",
          "type": "address"
        },
        {
          "internalType": "uint256",
          "name": "",
          "type": "uint256"
        }
      ],
      "name": "rewards",
      "outputs": [
        {
          "internalType": "uint256",
          "name": "amount",
          "type": "uint256"
        },
        {
          "internalType": "uint256",
          "name": "timestamp",
          "type": "uint256"
        },
        {
          "internalType": "bool",
          "name": "withdrawn",
          "type": "bool"
        }
      ],
      "stateMutability": "view",
      "type": "function"
    },
    {
      "inputs": [],
      "name": "ronKeToken",
      "outputs": [
        {
          "internalType": "contract IERC20",
          "name": "",
          "type": "address"
        }
      ],
      "stateMutability": "view",
      "type": "function"
    },
    {
      "inputs": [
        {
          "internalType": "address",
          "name": "newOwner",
          "type": "address"
        }
      ],
      "name": "transferOwnership",
      "outputs": [],
      "stateMutability": "nonpayable",
      "type": "function"
    },
    {
      "inputs": [
        {
          "internalType": "uint256",
          "name": "_nftID",
          "type": "uint256"
        }
      ],
      "name": "withdrawEarnings",
      "outputs": [],
      "stateMutability": "nonpayable",
      "type": "function"
    }
  ],
  "transactionHash": "0x8ebbeabd1e71556f28efec19df636cda7b2fe94026455d1e6f7e408f7280c1ba",
  "args": [
    "0x6aD90bB24ed985F3876aDE9AE09381b1Cd180548",
    "0x8702D8F38091a14f70926784F190cF04E1914853"
  ],
  "numDeployments": 1,
  "solcInputHash": "e6421eec14950652e73321461746bf15",
  "bytecode": "0x608060405234801561001057600080fd5b5060405161108f38038061108f83398101604081905261002f916100fa565b816001600160a01b03811661005e57604051631e4fbdf760e01b81526000600482015260240160405180910390fd5b6100678161008e565b50600180546001600160a01b0319166001600160a01b03929092169190911790555061012d565b600080546001600160a01b038381166001600160a01b0319831681178455604051919092169283917f8be0079c531659141344cd1fd0a4f28419497f9722a3daafe3b4186f6b6457e09190a35050565b80516001600160a01b03811681146100f557600080fd5b919050565b6000806040838503121561010d57600080fd5b610116836100de565b9150610124602084016100de565b90509250929050565b610f538061013c6000396000f3fe608060405234801561001057600080fd5b50600436106101165760003560e01c80638da5cb5b116100a2578063c5ea3c6511610071578063c5ea3c6514610277578063e0b8fd8614610280578063eb1492c814610292578063f2fde38b146102a5578063fd731837146102b857600080fd5b80638da5cb5b146101e2578063a23919f514610207578063b5af960d1461021a578063b933ceac1461023a57600080fd5b806370632318116100e95780637063231814610196578063715018a61461019e578063816171c0146101a65780638467db1c146101b45780638889342f146101c257600080fd5b80630676cf141461011b57806346e6a86c1461013057806352eac179146101535780636e70096e14610183575b600080fd5b61012e610129366004610d4f565b6102e1565b005b6101406521a7a6a6a7a760d11b81565b6040519081526020015b60405180910390f35b610166610161366004610d4f565b61044d565b60408051938452602084019290925215159082015260600161014a565b61012e610191366004610d71565b610492565b61012e610827565b61012e61086d565b610140635241524560e01b81565b610140634550494360e01b81565b6101406101d0366004610d71565b60026020526000908152604090205481565b6000546001600160a01b03165b6040516001600160a01b03909116815260200161014a565b61012e610215366004610da6565b610881565b610140610228366004610dec565b60056020526000908152604090205481565b610166610248366004610e0e565b600460209081526000928352604080842090915290825290208054600182015460029092015490919060ff1683565b61014060075481565b610140672aa721a7a6a6a7a760c11b81565b6001546101ef906001600160a01b031681565b61012e6102b3366004610dec565b610b8b565b6101ef6102c6366004610d71565b6003602052600090815260409020546001600160a01b031681565b60008281526003602052604090205433906001600160a01b031661036a576103098383610bc6565b600083815260036020908152604080832080546001600160a01b0319166001600160a01b038616179055600290915281208054600f929061034b908490610e4e565b90915550506007805490600061036083610e67565b9190505550610405565b600083815260036020908152604080832080546001600160a01b0319166001600160a01b0386161790556002909152902054806103df5760405162461bcd60e51b815260206004820152600e60248201526d139bdd08195b9bdd59da081bda5b60921b60448201526064015b60405180910390fd5b60008481526002602052604081208054600f92906103fe908490610e4e565b9091555050505b806001600160a01b03167fad88d7f08ab3397d16da82ca9e5ea036e2e84291f564f3c42915b8bcc74e00f98460405161044091815260200190565b60405180910390a2505050565b6006602052816000526040600020818154811061046957600080fd5b600091825260209091206003909102018054600182015460029092015490935090915060ff1683565b6000818152600360205260409020546001600160a01b031633146104f85760405162461bcd60e51b815260206004820152601760248201527f596f7520646f206e6f74206f776e2074686973204e465400000000000000000060448201526064016103d6565b6000818152600660205260408120908042815b845481101561066d5784818154811061052657610526610e80565b600091825260209091206002600390920201015460ff1661065b57600085828154811061055557610555610e80565b906000526020600020906003020160010154836105729190610e4e565b9050600086838154811061058857610588610e80565b9060005260206000209060030201600001549050620151808210156105cf5760646105b4826032610e96565b6105be9190610ead565b6105c89086610ecf565b9450610616565b6202a3008210156105e75760646105b482601e610e96565b6203f4808210156106165760646105ff826014610e96565b6106099190610ead565b6106139086610ecf565b94505b6106208187610ecf565b9550600187848154811061063657610636610e80565b60009182526020909120600390910201600201805460ff191691151591909117905550505b8061066581610e67565b91505061050b565b50600083116106ca5760405162461bcd60e51b8152602060048201526024808201527f4e6f206561726e696e677320617661696c61626c6520666f7220776974686472604482015263185dd85b60e21b60648201526084016103d6565b60006106d68385610e4e565b6001549091506001600160a01b031663a9059cbb6106fc6000546001600160a01b031690565b6040516001600160e01b031960e084901b1681526001600160a01b039091166004820152602481018690526044016020604051808303816000875af1158015610749573d6000803e3d6000fd5b505050506040513d601f19601f8201168201806040525081019061076d9190610ee2565b5060015460405163a9059cbb60e01b8152336004820152602481018390526001600160a01b039091169063a9059cbb906044016020604051808303816000875af11580156107bf573d6000803e3d6000fd5b505050506040513d601f19601f820116820180604052508101906107e39190610ee2565b50604080518281526020810185905233917fdf273cb619d95419a9cd0ec88123a0538c85064229baa6363788f743fff90deb910160405180910390a2505050505050565b61082f610cd2565b60005b60075481101561086a57600081815260036020526040902080546001600160a01b03191690558061086281610e67565b915050610832565b50565b610875610cd2565b61087f6000610cff565b565b610889610cd2565b60008160ff166001036108a55750676f05b59d3b2000006108dd565b8160ff166002036108bf5750674563918244f400006108dd565b8160ff166003036108d957506729a2241af62c00006108dd565b5060005b6000811161092d5760405162461bcd60e51b815260206004820152601b60248201527f4e6f2072657761726420666f72207468697320706f736974696f6e000000000060448201526064016103d6565b6001546040516370a0823160e01b815230600482015282916001600160a01b0316906370a0823190602401602060405180830381865afa158015610975573d6000803e3d6000fd5b505050506040513d601f19601f820116820180604052508101906109999190610f04565b10156109e75760405162461bcd60e51b815260206004820152601e60248201527f496e73756666696369656e742066756e647320696e20636f6e7472616374000060448201526064016103d6565b6001600160a01b0384166000818152600560208181526040808420805482516060810184528881524281860190815281850188815289895260048752858920848a5287529488209151825551600182015592516002909301805460ff191693151593909317909255948452919052825490929091610a6483610e67565b909155505060008481526006602090815260408083208151606081018352868152428185019081528184018681528354600180820186559488529590962091516003909502909101938455518382015592516002909201805460ff1916921515929092179091559054905163a9059cbb60e01b81526001600160a01b038781166004830152602482018590529091169063a9059cbb906044016020604051808303816000875af1158015610b1c573d6000803e3d6000fd5b505050506040513d601f19601f82011682018060405250810190610b409190610ee2565b50846001600160a01b03167f3ad0c8d1bbd63d54c5f14180eae95cab7c2420b2dbb90603a6e5d206668f52ec83604051610b7c91815260200190565b60405180910390a25050505050565b610b93610cd2565b6001600160a01b038116610bbd57604051631e4fbdf760e01b8152600060048201526024016103d6565b61086a81610cff565b6521a7a6a6a7a760d11b811480610be75750672aa721a7a6a6a7a760c11b81145b80610bf85750635241524560e01b81145b80610c095750634550494360e01b81145b610c445760405162461bcd60e51b815260206004820152600c60248201526b57726f6e672072617269747960a01b60448201526064016103d6565b6521a7a6a6a7a760d11b8103610c67576000828152600260205260409020601e90555b672aa721a7a6a6a7a760c11b8103610c8c576000828152600260205260409020602d90555b635241524560e01b8103610cad576000828152600260205260409020603c90555b634550494360e01b8103610cce576000828152600260205260409020604b90555b5050565b6000546001600160a01b0316331461087f5760405163118cdaa760e01b81523360048201526024016103d6565b600080546001600160a01b038381166001600160a01b0319831681178455604051919092169283917f8be0079c531659141344cd1fd0a4f28419497f9722a3daafe3b4186f6b6457e09190a35050565b60008060408385031215610d6257600080fd5b50508035926020909101359150565b600060208284031215610d8357600080fd5b5035919050565b80356001600160a01b0381168114610da157600080fd5b919050565b600080600060608486031215610dbb57600080fd5b610dc484610d8a565b925060208401359150604084013560ff81168114610de157600080fd5b809150509250925092565b600060208284031215610dfe57600080fd5b610e0782610d8a565b9392505050565b60008060408385031215610e2157600080fd5b610e2a83610d8a565b946020939093013593505050565b634e487b7160e01b600052601160045260246000fd5b81810381811115610e6157610e61610e38565b92915050565b600060018201610e7957610e79610e38565b5060010190565b634e487b7160e01b600052603260045260246000fd5b8082028115828204841417610e6157610e61610e38565b600082610eca57634e487b7160e01b600052601260045260246000fd5b500490565b80820180821115610e6157610e61610e38565b600060208284031215610ef457600080fd5b81518015158114610e0757600080fd5b600060208284031215610f1657600080fd5b505191905056fea2646970667358221220c93098e5d25e1c6969bfcc05cdd24dddf7177385e31dcd0159d9fc25d1a7ee6964736f6c63430008140033",
  "devdoc": {
    "errors": {
      "OwnableInvalidOwner(address)": [
        {
          "details": "The owner is not a valid owner account. (eg. `address(0)`)"
        }
      ],
      "OwnableUnauthorizedAccount(address)": [
        {
          "details": "The caller account is not authorized to perform an operation."
        }
      ]
    },
    "kind": "dev",
    "methods": {
      "owner()": {
        "details": "Returns the address of the current owner."
      },
      "renounceOwnership()": {
        "details": "Leaves the contract without owner. It will not be possible to call `onlyOwner` functions. Can only be called by the current owner. NOTE: Renouncing ownership will leave the contract without an owner, thereby disabling any functionality that is only available to the owner."
      },
      "transferOwnership(address)": {
        "details": "Transfers ownership of the contract to a new account (`newOwner`). Can only be called by the current owner."
      }
    },
    "version": 1
  },
  "userdoc": {
    "kind": "user",
    "methods": {},
    "version": 1
  },
  "storageLayout": {
    "storage": [
      {
        "astId": 8,
        "contract": "contracts/Finance.sol:Finance",
        "label": "_owner",
        "offset": 0,
        "slot": "0",
        "type": "t_address"
      },
      {
        "astId": 266,
        "contract": "contracts/Finance.sol:Finance",
        "label": "ronKeToken",
        "offset": 0,
        "slot": "1",
        "type": "t_contract(IERC20)225"
      },
      {
        "astId": 282,
        "contract": "contracts/Finance.sol:Finance",
        "label": "oilBalances",
        "offset": 0,
        "slot": "2",
        "type": "t_mapping(t_uint256,t_uint256)"
      },
      {
        "astId": 286,
        "contract": "contracts/Finance.sol:Finance",
        "label": "nftOwner",
        "offset": 0,
        "slot": "3",
        "type": "t_mapping(t_uint256,t_address)"
      },
      {
        "astId": 293,
        "contract": "contracts/Finance.sol:Finance",
        "label": "rewards",
        "offset": 0,
        "slot": "4",
        "type": "t_mapping(t_address,t_mapping(t_uint256,t_struct(Reward)332_storage))"
      },
      {
        "astId": 297,
        "contract": "contracts/Finance.sol:Finance",
        "label": "rewardCount",
        "offset": 0,
        "slot": "5",
        "type": "t_mapping(t_address,t_uint256)"
      },
      {
        "astId": 303,
        "contract": "contracts/Finance.sol:Finance",
        "label": "nftRewards",
        "offset": 0,
        "slot": "6",
        "type": "t_mapping(t_uint256,t_array(t_struct(Reward)332_storage)dyn_storage)"
      },
      {
        "astId": 305,
        "contract": "contracts/Finance.sol:Finance",
        "label": "maxId",
        "offset": 0,
        "slot": "7",
        "type": "t_uint256"
      }
    ],
    "types": {
      "t_address": {
        "encoding": "inplace",
        "label": "address",
        "numberOfBytes": "20"
      },
      "t_array(t_struct(Reward)332_storage)dyn_storage": {
        "base": "t_struct(Reward)332_storage",
        "encoding": "dynamic_array",
        "label": "struct Finance.Reward[]",
        "numberOfBytes": "32"
      },
      "t_bool": {
        "encoding": "inplace",
        "label": "bool",
        "numberOfBytes": "1"
      },
      "t_contract(IERC20)225": {
        "encoding": "inplace",
        "label": "contract IERC20",
        "numberOfBytes": "20"
      },
      "t_mapping(t_address,t_mapping(t_uint256,t_struct(Reward)332_storage))": {
        "encoding": "mapping",
        "key": "t_address",
        "label": "mapping(address => mapping(uint256 => struct Finance.Reward))",
        "numberOfBytes": "32",
        "value": "t_mapping(t_uint256,t_struct(Reward)332_storage)"
      },
      "t_mapping(t_address,t_uint256)": {
        "encoding": "mapping",
        "key": "t_address",
        "label": "mapping(address => uint256)",
        "numberOfBytes": "32",
        "value": "t_uint256"
      },
      "t_mapping(t_uint256,t_address)": {
        "encoding": "mapping",
        "key": "t_uint256",
        "label": "mapping(uint256 => address)",
        "numberOfBytes": "32",
        "value": "t_address"
      },
      "t_mapping(t_uint256,t_array(t_struct(Reward)332_storage)dyn_storage)": {
        "encoding": "mapping",
        "key": "t_uint256",
        "label": "mapping(uint256 => struct Finance.Reward[])",
        "numberOfBytes": "32",
        "value": "t_array(t_struct(Reward)332_storage)dyn_storage"
      },
      "t_mapping(t_uint256,t_struct(Reward)332_storage)": {
        "encoding": "mapping",
        "key": "t_uint256",
        "label": "mapping(uint256 => struct Finance.Reward)",
        "numberOfBytes": "32",
        "value": "t_struct(Reward)332_storage"
      },
      "t_mapping(t_uint256,t_uint256)": {
        "encoding": "mapping",
        "key": "t_uint256",
        "label": "mapping(uint256 => uint256)",
        "numberOfBytes": "32",
        "value": "t_uint256"
      },
      "t_struct(Reward)332_storage": {
        "encoding": "inplace",
        "label": "struct Finance.Reward",
        "members": [
          {
            "astId": 327,
            "contract": "contracts/Finance.sol:Finance",
            "label": "amount",
            "offset": 0,
            "slot": "0",
            "type": "t_uint256"
          },
          {
            "astId": 329,
            "contract": "contracts/Finance.sol:Finance",
            "label": "timestamp",
            "offset": 0,
            "slot": "1",
            "type": "t_uint256"
          },
          {
            "astId": 331,
            "contract": "contracts/Finance.sol:Finance",
            "label": "withdrawn",
            "offset": 0,
            "slot": "2",
            "type": "t_bool"
          }
        ],
        "numberOfBytes": "96"
      },
      "t_uint256": {
        "encoding": "inplace",
        "label": "uint256",
        "numberOfBytes": "32"
      }
    }
  }
}