{
  "address": "0xb6859f913399ee6ED32A0e115583e4f74a8FfE7F",
  "abi": [
    {
      "inputs": [
        {
          "internalType": "address",
          "name": "owner",
          "type": "address"
        },
        {
          "internalType": "address",
          "name": "_ronKeToken",
          "type": "address"
        }
      ],
      "stateMutability": "nonpayable",
      "type": "constructor"
    },
    {
      "inputs": [
        {
          "internalType": "address",
          "name": "owner",
          "type": "address"
        }
      ],
      "name": "OwnableInvalidOwner",
      "type": "error"
    },
    {
      "inputs": [
        {
          "internalType": "address",
          "name": "account",
          "type": "address"
        }
      ],
      "name": "OwnableUnauthorizedAccount",
      "type": "error"
    },
    {
      "anonymous": false,
      "inputs": [
        {
          "indexed": true,
          "internalType": "address",
          "name": "previousOwner",
          "type": "address"
        },
        {
          "indexed": true,
          "internalType": "address",
          "name": "newOwner",
          "type": "address"
        }
      ],
      "name": "OwnershipTransferred",
      "type": "event"
    },
    {
      "anonymous": false,
      "inputs": [
        {
          "indexed": true,
          "internalType": "address",
          "name": "player",
          "type": "address"
        },
        {
          "indexed": false,
          "internalType": "uint256",
          "name": "nftId",
          "type": "uint256"
        }
      ],
      "name": "RaceStarted",
      "type": "event"
    },
    {
      "anonymous": false,
      "inputs": [
        {
          "indexed": true,
          "internalType": "address",
          "name": "player",
          "type": "address"
        },
        {
          "indexed": false,
          "internalType": "uint256",
          "name": "amount",
          "type": "uint256"
        }
      ],
      "name": "RewardGiven",
      "type": "event"
    },
    {
      "anonymous": false,
      "inputs": [
        {
          "indexed": true,
          "internalType": "address",
          "name": "player",
          "type": "address"
        },
        {
          "indexed": false,
          "internalType": "uint256",
          "name": "amount",
          "type": "uint256"
        },
        {
          "indexed": false,
          "internalType": "uint256",
          "name": "penalty",
          "type": "uint256"
        }
      ],
      "name": "Withdrawal",
      "type": "event"
    },
    {
      "inputs": [],
      "name": "COMMON",
      "outputs": [
        {
          "internalType": "bytes32",
          "name": "",
          "type": "bytes32"
        }
      ],
      "stateMutability": "view",
      "type": "function"
    },
    {
      "inputs": [],
      "name": "EPIC",
      "outputs": [
        {
          "internalType": "bytes32",
          "name": "",
          "type": "bytes32"
        }
      ],
      "stateMutability": "view",
      "type": "function"
    },
    {
      "inputs": [],
      "name": "RARE",
      "outputs": [
        {
          "internalType": "bytes32",
          "name": "",
          "type": "bytes32"
        }
      ],
      "stateMutability": "view",
      "type": "function"
    },
    {
      "inputs": [],
      "name": "UNCOMMON",
      "outputs": [
        {
          "internalType": "bytes32",
          "name": "",
          "type": "bytes32"
        }
      ],
      "stateMutability": "view",
      "type": "function"
    },
    {
      "inputs": [],
      "name": "firstPlaceReward",
      "outputs": [
        {
          "internalType": "uint256",
          "name": "",
          "type": "uint256"
        }
      ],
      "stateMutability": "view",
      "type": "function"
    },
    {
      "inputs": [
        {
          "internalType": "address",
          "name": "player",
          "type": "address"
        },
        {
          "internalType": "uint256",
          "name": "_nftID",
          "type": "uint256"
        },
        {
          "internalType": "uint8",
          "name": "_position",
          "type": "uint8"
        }
      ],
      "name": "grantReward",
      "outputs": [],
      "stateMutability": "nonpayable",
      "type": "function"
    },
    {
      "inputs": [],
      "name": "maxId",
      "outputs": [
        {
          "internalType": "uint256",
          "name": "",
          "type": "uint256"
        }
      ],
      "stateMutability": "view",
      "type": "function"
    },
    {
      "inputs": [
        {
          "internalType": "uint256",
          "name": "",
          "type": "uint256"
        }
      ],
      "name": "nftOwner",
      "outputs": [
        {
          "internalType": "address",
          "name": "",
          "type": "address"
        }
      ],
      "stateMutability": "view",
      "type": "function"
    },
    {
      "inputs": [
        {
          "internalType": "uint256",
          "name": "",
          "type": "uint256"
        },
        {
          "internalType": "uint256",
          "name": "",
          "type": "uint256"
        }
      ],
      "name": "nftRewards",
      "outputs": [
        {
          "internalType": "uint256",
          "name": "amount",
          "type": "uint256"
        },
        {
          "internalType": "uint256",
          "name": "timestamp",
          "type": "uint256"
        },
        {
          "internalType": "bool",
          "name": "withdrawn",
          "type": "bool"
        }
      ],
      "stateMutability": "view",
      "type": "function"
    },
    {
      "inputs": [
        {
          "internalType": "uint256",
          "name": "",
          "type": "uint256"
        }
      ],
      "name": "oilBalances",
      "outputs": [
        {
          "internalType": "uint256",
          "name": "",
          "type": "uint256"
        }
      ],
      "stateMutability": "view",
      "type": "function"
    },
    {
      "inputs": [],
      "name": "owner",
      "outputs": [
        {
          "internalType": "address",
          "name": "",
          "type": "address"
        }
      ],
      "stateMutability": "view",
      "type": "function"
    },
    {
      "inputs": [
        {
          "internalType": "uint256",
          "name": "_nftID",
          "type": "uint256"
        },
        {
          "internalType": "bytes32",
          "name": "_rarity",
          "type": "bytes32"
        }
      ],
      "name": "raceStart",
      "outputs": [],
      "stateMutability": "nonpayable",
      "type": "function"
    },
    {
      "inputs": [],
      "name": "renounceOwnership",
      "outputs": [],
      "stateMutability": "nonpayable",
      "type": "function"
    },
    {
      "inputs": [],
      "name": "resetAllNftOwners",
      "outputs": [],
      "stateMutability": "nonpayable",
      "type": "function"
    },
    {
      "inputs": [
        {
          "internalType": "address",
          "name": "",
          "type": "address"
        }
      ],
      "name": "rewardCount",
      "outputs": [
        {
          "internalType": "uint256",
          "name": "",
          "type": "uint256"
        }
      ],
      "stateMutability": "view",
      "type": "function"
    },
    {
      "inputs": [
        {
          "internalType": "address",
          "name": "",
          "type": "address"
        },
        {
          "internalType": "uint256",
          "name": "",
          "type": "uint256"
        }
      ],
      "name": "rewards",
      "outputs": [
        {
          "internalType": "uint256",
          "name": "amount",
          "type": "uint256"
        },
        {
          "internalType": "uint256",
          "name": "timestamp",
          "type": "uint256"
        },
        {
          "internalType": "bool",
          "name": "withdrawn",
          "type": "bool"
        }
      ],
      "stateMutability": "view",
      "type": "function"
    },
    {
      "inputs": [],
      "name": "ronKeToken",
      "outputs": [
        {
          "internalType": "contract IERC20",
          "name": "",
          "type": "address"
        }
      ],
      "stateMutability": "view",
      "type": "function"
    },
    {
      "inputs": [],
      "name": "secondPlaceReward",
      "outputs": [
        {
          "internalType": "uint256",
          "name": "",
          "type": "uint256"
        }
      ],
      "stateMutability": "view",
      "type": "function"
    },
    {
      "inputs": [],
      "name": "thirdPlaceReward",
      "outputs": [
        {
          "internalType": "uint256",
          "name": "",
          "type": "uint256"
        }
      ],
      "stateMutability": "view",
      "type": "function"
    },
    {
      "inputs": [
        {
          "internalType": "address",
          "name": "newOwner",
          "type": "address"
        }
      ],
      "name": "transferOwnership",
      "outputs": [],
      "stateMutability": "nonpayable",
      "type": "function"
    },
    {
      "inputs": [
        {
          "internalType": "uint256",
          "name": "_first",
          "type": "uint256"
        },
        {
          "internalType": "uint256",
          "name": "_second",
          "type": "uint256"
        },
        {
          "internalType": "uint256",
          "name": "_third",
          "type": "uint256"
        }
      ],
      "name": "updateRewards",
      "outputs": [],
      "stateMutability": "nonpayable",
      "type": "function"
    },
    {
      "inputs": [
        {
          "internalType": "uint256",
          "name": "_nftID",
          "type": "uint256"
        }
      ],
      "name": "withdrawEarnings",
      "outputs": [],
      "stateMutability": "nonpayable",
      "type": "function"
    }
  ],
  "transactionHash": "0xa3a19a5dec14f898af3aceae7159aaa79293b58c8f48b5c5791c399e512792f9",
  "args": [
    "0x6aD90bB24ed985F3876aDE9AE09381b1Cd180548",
    "0x8702D8F38091a14f70926784F190cF04E1914853"
  ],
  "numDeployments": 2,
  "solcInputHash": "db1150f2537128e70e90a1528b3320cb",
  "bytecode": "0x608060405234801561001057600080fd5b5060405161113d38038061113d83398101604081905261002f9161011e565b816001600160a01b03811661005e57604051631e4fbdf760e01b81526000600482015260240160405180910390fd5b610067816100b2565b50600180546001600160a01b0319166001600160a01b039290921691909117905550676f05b59d3b200000600255674563918244f400006003556729a2241af62c0000600455610151565b600080546001600160a01b038381166001600160a01b0319831681178455604051919092169283917f8be0079c531659141344cd1fd0a4f28419497f9722a3daafe3b4186f6b6457e09190a35050565b80516001600160a01b038116811461011957600080fd5b919050565b6000806040838503121561013157600080fd5b61013a83610102565b915061014860208401610102565b90509250929050565b610fdd806101606000396000f3fe608060405234801561001057600080fd5b50600436106101425760003560e01c80638889342f116100b8578063b933ceac1161007c578063b933ceac14610294578063c5ea3c65146102d1578063e0b8fd86146102da578063eb1492c8146102ec578063f2fde38b146102ff578063fd7318371461031257600080fd5b80638889342f146102095780638da5cb5b14610229578063a23919f51461024e578063b37f259014610261578063b5af960d1461027457600080fd5b8063706323181161010a57806370632318146101cb578063715018a6146101d35780637a555e9e146101db5780637c887430146101e4578063816171c0146101ed5780638467db1c146101fb57600080fd5b80630676cf141461014757806319088f1f1461015c57806346e6a86c1461017857806352eac179146101885780636e70096e146101b8575b600080fd5b61015a610155366004610dad565b61033b565b005b61016560025481565b6040519081526020015b60405180910390f35b6101656521a7a6a6a7a760d11b81565b61019b610196366004610dad565b6104a7565b60408051938452602084019290925215159082015260600161016f565b61015a6101c6366004610dcf565b6104ec565b61015a610881565b61015a6108c7565b61016560045481565b61016560035481565b610165635241524560e01b81565b610165634550494360e01b81565b610165610217366004610dcf565b60056020526000908152604090205481565b6000546001600160a01b03165b6040516001600160a01b03909116815260200161016f565b61015a61025c366004610e04565b6108db565b61015a61026f366004610e4a565b610bd3565b610165610282366004610e76565b60086020526000908152604090205481565b61019b6102a2366004610e98565b600760209081526000928352604080842090915290825290208054600182015460029092015490919060ff1683565b610165600a5481565b610165672aa721a7a6a6a7a760c11b81565b600154610236906001600160a01b031681565b61015a61030d366004610e76565b610be9565b610236610320366004610dcf565b6006602052600090815260409020546001600160a01b031681565b60008281526006602052604090205433906001600160a01b03166103c4576103638383610c24565b600083815260066020908152604080832080546001600160a01b0319166001600160a01b038616179055600590915281208054600f92906103a5908490610ed8565b9091555050600a80549060006103ba83610ef1565b919050555061045f565b600083815260066020908152604080832080546001600160a01b0319166001600160a01b0386161790556005909152902054806104395760405162461bcd60e51b815260206004820152600e60248201526d139bdd08195b9bdd59da081bda5b60921b60448201526064015b60405180910390fd5b60008481526005602052604081208054600f9290610458908490610ed8565b9091555050505b806001600160a01b03167fad88d7f08ab3397d16da82ca9e5ea036e2e84291f564f3c42915b8bcc74e00f98460405161049a91815260200190565b60405180910390a2505050565b600960205281600052604060002081815481106104c357600080fd5b600091825260209091206003909102018054600182015460029092015490935090915060ff1683565b6000818152600660205260409020546001600160a01b031633146105525760405162461bcd60e51b815260206004820152601760248201527f596f7520646f206e6f74206f776e2074686973204e46540000000000000000006044820152606401610430565b6000818152600960205260408120908042815b84548110156106c75784818154811061058057610580610f0a565b600091825260209091206002600390920201015460ff166106b55760008582815481106105af576105af610f0a565b906000526020600020906003020160010154836105cc9190610ed8565b905060008683815481106105e2576105e2610f0a565b90600052602060002090600302016000015490506201518082101561062957606461060e826032610f20565b6106189190610f37565b6106229086610f59565b9450610670565b6202a30082101561064157606461060e82601e610f20565b6203f480821015610670576064610659826014610f20565b6106639190610f37565b61066d9086610f59565b94505b61067a8187610f59565b9550600187848154811061069057610690610f0a565b60009182526020909120600390910201600201805460ff191691151591909117905550505b806106bf81610ef1565b915050610565565b50600083116107245760405162461bcd60e51b8152602060048201526024808201527f4e6f206561726e696e677320617661696c61626c6520666f7220776974686472604482015263185dd85b60e21b6064820152608401610430565b60006107308385610ed8565b6001549091506001600160a01b031663a9059cbb6107566000546001600160a01b031690565b6040516001600160e01b031960e084901b1681526001600160a01b039091166004820152602481018690526044016020604051808303816000875af11580156107a3573d6000803e3d6000fd5b505050506040513d601f19601f820116820180604052508101906107c79190610f6c565b5060015460405163a9059cbb60e01b8152336004820152602481018390526001600160a01b039091169063a9059cbb906044016020604051808303816000875af1158015610819573d6000803e3d6000fd5b505050506040513d601f19601f8201168201806040525081019061083d9190610f6c565b50604080518281526020810185905233917fdf273cb619d95419a9cd0ec88123a0538c85064229baa6363788f743fff90deb910160405180910390a2505050505050565b610889610d30565b60005b600a548110156108c457600081815260066020526040902080546001600160a01b0319169055806108bc81610ef1565b91505061088c565b50565b6108cf610d30565b6108d96000610d5d565b565b6108e3610d30565b60008160ff166001036108f95750600254610925565b8160ff1660020361090d5750600354610925565b8160ff166003036109215750600454610925565b5060005b600081116109755760405162461bcd60e51b815260206004820152601b60248201527f4e6f2072657761726420666f72207468697320706f736974696f6e00000000006044820152606401610430565b6001546040516370a0823160e01b815230600482015282916001600160a01b0316906370a0823190602401602060405180830381865afa1580156109bd573d6000803e3d6000fd5b505050506040513d601f19601f820116820180604052508101906109e19190610f8e565b1015610a2f5760405162461bcd60e51b815260206004820152601e60248201527f496e73756666696369656e742066756e647320696e20636f6e747261637400006044820152606401610430565b6001600160a01b0384166000818152600860208181526040808420805482516060810184528881524281860190815281850188815289895260078752858920848a5287529488209151825551600182015592516002909301805460ff191693151593909317909255948452919052825490929091610aac83610ef1565b909155505060008481526009602090815260408083208151606081018352868152428185019081528184018681528354600180820186559488529590962091516003909502909101938455518382015592516002909201805460ff1916921515929092179091559054905163a9059cbb60e01b81526001600160a01b038781166004830152602482018590529091169063a9059cbb906044016020604051808303816000875af1158015610b64573d6000803e3d6000fd5b505050506040513d601f19601f82011682018060405250810190610b889190610f6c565b50846001600160a01b03167f3ad0c8d1bbd63d54c5f14180eae95cab7c2420b2dbb90603a6e5d206668f52ec83604051610bc491815260200190565b60405180910390a25050505050565b610bdb610d30565b600292909255600355600455565b610bf1610d30565b6001600160a01b038116610c1b57604051631e4fbdf760e01b815260006004820152602401610430565b6108c481610d5d565b6521a7a6a6a7a760d11b811480610c455750672aa721a7a6a6a7a760c11b81145b80610c565750635241524560e01b81145b80610c675750634550494360e01b81145b610ca25760405162461bcd60e51b815260206004820152600c60248201526b57726f6e672072617269747960a01b6044820152606401610430565b6521a7a6a6a7a760d11b8103610cc5576000828152600560205260409020601e90555b672aa721a7a6a6a7a760c11b8103610cea576000828152600560205260409020602d90555b635241524560e01b8103610d0b576000828152600560205260409020603c90555b634550494360e01b8103610d2c576000828152600560205260409020604b90555b5050565b6000546001600160a01b031633146108d95760405163118cdaa760e01b8152336004820152602401610430565b600080546001600160a01b038381166001600160a01b0319831681178455604051919092169283917f8be0079c531659141344cd1fd0a4f28419497f9722a3daafe3b4186f6b6457e09190a35050565b60008060408385031215610dc057600080fd5b50508035926020909101359150565b600060208284031215610de157600080fd5b5035919050565b80356001600160a01b0381168114610dff57600080fd5b919050565b600080600060608486031215610e1957600080fd5b610e2284610de8565b925060208401359150604084013560ff81168114610e3f57600080fd5b809150509250925092565b600080600060608486031215610e5f57600080fd5b505081359360208301359350604090920135919050565b600060208284031215610e8857600080fd5b610e9182610de8565b9392505050565b60008060408385031215610eab57600080fd5b610eb483610de8565b946020939093013593505050565b634e487b7160e01b600052601160045260246000fd5b81810381811115610eeb57610eeb610ec2565b92915050565b600060018201610f0357610f03610ec2565b5060010190565b634e487b7160e01b600052603260045260246000fd5b8082028115828204841417610eeb57610eeb610ec2565b600082610f5457634e487b7160e01b600052601260045260246000fd5b500490565b80820180821115610eeb57610eeb610ec2565b600060208284031215610f7e57600080fd5b81518015158114610e9157600080fd5b600060208284031215610fa057600080fd5b505191905056fea26469706673582212205a4cf164b64e5716cb1bcc82c6dae254fd8cd3ebe0c327a36b560792a7ef2c7f64736f6c63430008140033",
  "devdoc": {
    "errors": {
      "OwnableInvalidOwner(address)": [
        {
          "details": "The owner is not a valid owner account. (eg. `address(0)`)"
        }
      ],
      "OwnableUnauthorizedAccount(address)": [
        {
          "details": "The caller account is not authorized to perform an operation."
        }
      ]
    },
    "kind": "dev",
    "methods": {
      "owner()": {
        "details": "Returns the address of the current owner."
      },
      "renounceOwnership()": {
        "details": "Leaves the contract without owner. It will not be possible to call `onlyOwner` functions. Can only be called by the current owner. NOTE: Renouncing ownership will leave the contract without an owner, thereby disabling any functionality that is only available to the owner."
      },
      "transferOwnership(address)": {
        "details": "Transfers ownership of the contract to a new account (`newOwner`). Can only be called by the current owner."
      }
    },
    "version": 1
  },
  "userdoc": {
    "kind": "user",
    "methods": {},
    "version": 1
  },
  "storageLayout": {
    "storage": [
      {
        "astId": 8,
        "contract": "contracts/Finance.sol:Finance",
        "label": "_owner",
        "offset": 0,
        "slot": "0",
        "type": "t_address"
      },
      {
        "astId": 266,
        "contract": "contracts/Finance.sol:Finance",
        "label": "ronKeToken",
        "offset": 0,
        "slot": "1",
        "type": "t_contract(IERC20)225"
      },
      {
        "astId": 268,
        "contract": "contracts/Finance.sol:Finance",
        "label": "firstPlaceReward",
        "offset": 0,
        "slot": "2",
        "type": "t_uint256"
      },
      {
        "astId": 270,
        "contract": "contracts/Finance.sol:Finance",
        "label": "secondPlaceReward",
        "offset": 0,
        "slot": "3",
        "type": "t_uint256"
      },
      {
        "astId": 272,
        "contract": "contracts/Finance.sol:Finance",
        "label": "thirdPlaceReward",
        "offset": 0,
        "slot": "4",
        "type": "t_uint256"
      },
      {
        "astId": 288,
        "contract": "contracts/Finance.sol:Finance",
        "label": "oilBalances",
        "offset": 0,
        "slot": "5",
        "type": "t_mapping(t_uint256,t_uint256)"
      },
      {
        "astId": 292,
        "contract": "contracts/Finance.sol:Finance",
        "label": "nftOwner",
        "offset": 0,
        "slot": "6",
        "type": "t_mapping(t_uint256,t_address)"
      },
      {
        "astId": 299,
        "contract": "contracts/Finance.sol:Finance",
        "label": "rewards",
        "offset": 0,
        "slot": "7",
        "type": "t_mapping(t_address,t_mapping(t_uint256,t_struct(Reward)338_storage))"
      },
      {
        "astId": 303,
        "contract": "contracts/Finance.sol:Finance",
        "label": "rewardCount",
        "offset": 0,
        "slot": "8",
        "type": "t_mapping(t_address,t_uint256)"
      },
      {
        "astId": 309,
        "contract": "contracts/Finance.sol:Finance",
        "label": "nftRewards",
        "offset": 0,
        "slot": "9",
        "type": "t_mapping(t_uint256,t_array(t_struct(Reward)338_storage)dyn_storage)"
      },
      {
        "astId": 311,
        "contract": "contracts/Finance.sol:Finance",
        "label": "maxId",
        "offset": 0,
        "slot": "10",
        "type": "t_uint256"
      }
    ],
    "types": {
      "t_address": {
        "encoding": "inplace",
        "label": "address",
        "numberOfBytes": "20"
      },
      "t_array(t_struct(Reward)338_storage)dyn_storage": {
        "base": "t_struct(Reward)338_storage",
        "encoding": "dynamic_array",
        "label": "struct Finance.Reward[]",
        "numberOfBytes": "32"
      },
      "t_bool": {
        "encoding": "inplace",
        "label": "bool",
        "numberOfBytes": "1"
      },
      "t_contract(IERC20)225": {
        "encoding": "inplace",
        "label": "contract IERC20",
        "numberOfBytes": "20"
      },
      "t_mapping(t_address,t_mapping(t_uint256,t_struct(Reward)338_storage))": {
        "encoding": "mapping",
        "key": "t_address",
        "label": "mapping(address => mapping(uint256 => struct Finance.Reward))",
        "numberOfBytes": "32",
        "value": "t_mapping(t_uint256,t_struct(Reward)338_storage)"
      },
      "t_mapping(t_address,t_uint256)": {
        "encoding": "mapping",
        "key": "t_address",
        "label": "mapping(address => uint256)",
        "numberOfBytes": "32",
        "value": "t_uint256"
      },
      "t_mapping(t_uint256,t_address)": {
        "encoding": "mapping",
        "key": "t_uint256",
        "label": "mapping(uint256 => address)",
        "numberOfBytes": "32",
        "value": "t_address"
      },
      "t_mapping(t_uint256,t_array(t_struct(Reward)338_storage)dyn_storage)": {
        "encoding": "mapping",
        "key": "t_uint256",
        "label": "mapping(uint256 => struct Finance.Reward[])",
        "numberOfBytes": "32",
        "value": "t_array(t_struct(Reward)338_storage)dyn_storage"
      },
      "t_mapping(t_uint256,t_struct(Reward)338_storage)": {
        "encoding": "mapping",
        "key": "t_uint256",
        "label": "mapping(uint256 => struct Finance.Reward)",
        "numberOfBytes": "32",
        "value": "t_struct(Reward)338_storage"
      },
      "t_mapping(t_uint256,t_uint256)": {
        "encoding": "mapping",
        "key": "t_uint256",
        "label": "mapping(uint256 => uint256)",
        "numberOfBytes": "32",
        "value": "t_uint256"
      },
      "t_struct(Reward)338_storage": {
        "encoding": "inplace",
        "label": "struct Finance.Reward",
        "members": [
          {
            "astId": 333,
            "contract": "contracts/Finance.sol:Finance",
            "label": "amount",
            "offset": 0,
            "slot": "0",
            "type": "t_uint256"
          },
          {
            "astId": 335,
            "contract": "contracts/Finance.sol:Finance",
            "label": "timestamp",
            "offset": 0,
            "slot": "1",
            "type": "t_uint256"
          },
          {
            "astId": 337,
            "contract": "contracts/Finance.sol:Finance",
            "label": "withdrawn",
            "offset": 0,
            "slot": "2",
            "type": "t_bool"
          }
        ],
        "numberOfBytes": "96"
      },
      "t_uint256": {
        "encoding": "inplace",
        "label": "uint256",
        "numberOfBytes": "32"
      }
    }
  }
}